{
  "_format": "hh-sol-artifact-1",
  "contractName": "MyEpicNFT",
  "sourceName": "contracts/MyEpicNFT.sol",
  "abi": [
    {
      "inputs": [],
      "stateMutability": "nonpayable",
      "type": "constructor"
    },
    {
      "anonymous": false,
      "inputs": [
        {
          "indexed": true,
          "internalType": "address",
          "name": "owner",
          "type": "address"
        },
        {
          "indexed": true,
          "internalType": "address",
          "name": "approved",
          "type": "address"
        },
        {
          "indexed": true,
          "internalType": "uint256",
          "name": "tokenId",
          "type": "uint256"
        }
      ],
      "name": "Approval",
      "type": "event"
    },
    {
      "anonymous": false,
      "inputs": [
        {
          "indexed": true,
          "internalType": "address",
          "name": "owner",
          "type": "address"
        },
        {
          "indexed": true,
          "internalType": "address",
          "name": "operator",
          "type": "address"
        },
        {
          "indexed": false,
          "internalType": "bool",
          "name": "approved",
          "type": "bool"
        }
      ],
      "name": "ApprovalForAll",
      "type": "event"
    },
    {
      "anonymous": false,
      "inputs": [
        {
          "indexed": true,
          "internalType": "address",
          "name": "from",
          "type": "address"
        },
        {
          "indexed": true,
          "internalType": "address",
          "name": "to",
          "type": "address"
        },
        {
          "indexed": true,
          "internalType": "uint256",
          "name": "tokenId",
          "type": "uint256"
        }
      ],
      "name": "Transfer",
      "type": "event"
    },
    {
      "inputs": [
        {
          "internalType": "address",
          "name": "to",
          "type": "address"
        },
        {
          "internalType": "uint256",
          "name": "tokenId",
          "type": "uint256"
        }
      ],
      "name": "approve",
      "outputs": [],
      "stateMutability": "nonpayable",
      "type": "function"
    },
    {
      "inputs": [
        {
          "internalType": "address",
          "name": "owner",
          "type": "address"
        }
      ],
      "name": "balanceOf",
      "outputs": [
        {
          "internalType": "uint256",
          "name": "",
          "type": "uint256"
        }
      ],
      "stateMutability": "view",
      "type": "function"
    },
    {
      "inputs": [
        {
          "internalType": "uint256",
          "name": "tokenId",
          "type": "uint256"
        }
      ],
      "name": "getApproved",
      "outputs": [
        {
          "internalType": "address",
          "name": "",
          "type": "address"
        }
      ],
      "stateMutability": "view",
      "type": "function"
    },
    {
      "inputs": [
        {
          "internalType": "address",
          "name": "owner",
          "type": "address"
        },
        {
          "internalType": "address",
          "name": "operator",
          "type": "address"
        }
      ],
      "name": "isApprovedForAll",
      "outputs": [
        {
          "internalType": "bool",
          "name": "",
          "type": "bool"
        }
      ],
      "stateMutability": "view",
      "type": "function"
    },
    {
      "inputs": [
        {
          "internalType": "string",
          "name": "jsonData",
          "type": "string"
        }
      ],
      "name": "makeAnEpicNFT",
      "outputs": [],
      "stateMutability": "nonpayable",
      "type": "function"
    },
    {
      "inputs": [],
      "name": "name",
      "outputs": [
        {
          "internalType": "string",
          "name": "",
          "type": "string"
        }
      ],
      "stateMutability": "view",
      "type": "function"
    },
    {
      "inputs": [
        {
          "internalType": "uint256",
          "name": "tokenId",
          "type": "uint256"
        }
      ],
      "name": "ownerOf",
      "outputs": [
        {
          "internalType": "address",
          "name": "",
          "type": "address"
        }
      ],
      "stateMutability": "view",
      "type": "function"
    },
    {
      "inputs": [
        {
          "internalType": "address",
          "name": "from",
          "type": "address"
        },
        {
          "internalType": "address",
          "name": "to",
          "type": "address"
        },
        {
          "internalType": "uint256",
          "name": "tokenId",
          "type": "uint256"
        }
      ],
      "name": "safeTransferFrom",
      "outputs": [],
      "stateMutability": "nonpayable",
      "type": "function"
    },
    {
      "inputs": [
        {
          "internalType": "address",
          "name": "from",
          "type": "address"
        },
        {
          "internalType": "address",
          "name": "to",
          "type": "address"
        },
        {
          "internalType": "uint256",
          "name": "tokenId",
          "type": "uint256"
        },
        {
          "internalType": "bytes",
          "name": "_data",
          "type": "bytes"
        }
      ],
      "name": "safeTransferFrom",
      "outputs": [],
      "stateMutability": "nonpayable",
      "type": "function"
    },
    {
      "inputs": [
        {
          "internalType": "address",
          "name": "operator",
          "type": "address"
        },
        {
          "internalType": "bool",
          "name": "approved",
          "type": "bool"
        }
      ],
      "name": "setApprovalForAll",
      "outputs": [],
      "stateMutability": "nonpayable",
      "type": "function"
    },
    {
      "inputs": [
        {
          "internalType": "bytes4",
          "name": "interfaceId",
          "type": "bytes4"
        }
      ],
      "name": "supportsInterface",
      "outputs": [
        {
          "internalType": "bool",
          "name": "",
          "type": "bool"
        }
      ],
      "stateMutability": "view",
      "type": "function"
    },
    {
      "inputs": [],
      "name": "symbol",
      "outputs": [
        {
          "internalType": "string",
          "name": "",
          "type": "string"
        }
      ],
      "stateMutability": "view",
      "type": "function"
    },
    {
      "inputs": [
        {
          "internalType": "uint256",
          "name": "tokenId",
          "type": "uint256"
        }
      ],
      "name": "tokenURI",
      "outputs": [
        {
          "internalType": "string",
          "name": "",
          "type": "string"
        }
      ],
      "stateMutability": "view",
      "type": "function"
    },
    {
      "inputs": [
        {
          "internalType": "address",
          "name": "from",
          "type": "address"
        },
        {
          "internalType": "address",
          "name": "to",
          "type": "address"
        },
        {
          "internalType": "uint256",
          "name": "tokenId",
          "type": "uint256"
        }
      ],
      "name": "transferFrom",
      "outputs": [],
      "stateMutability": "nonpayable",
      "type": "function"
    }
  ],
  "bytecode": "0x60806040523480156200001157600080fd5b506040518060400160405280600c81526020017f4d4d4120466967687465727300000000000000000000000000000000000000008152506040518060400160405280600581526020017f444a4d4d41000000000000000000000000000000000000000000000000000000815250816000908051906020019062000096929190620001b3565b508060019080519060200190620000af929190620001b3565b505050620000e1604051806060016040528060258152602001620031fe60259139620000e760201b62000b561760201c565b62000390565b6200018781604051602401620000fe9190620002a4565b6040516020818303038152906040527f41304fac000000000000000000000000000000000000000000000000000000007bffffffffffffffffffffffffffffffffffffffffffffffffffffffff19166020820180517bffffffffffffffffffffffffffffffffffffffffffffffffffffffff83818316178352505050506200018a60201b60201c565b50565b60008151905060006a636f6e736f6c652e6c6f679050602083016000808483855afa5050505050565b828054620001c1906200031a565b90600052602060002090601f016020900481019282620001e5576000855562000231565b82601f106200020057805160ff191683800117855562000231565b8280016001018555821562000231579182015b828111156200023057825182559160200191906001019062000213565b5b50905062000240919062000244565b5090565b5b808211156200025f57600081600090555060010162000245565b5090565b60006200027082620002c8565b6200027c8185620002d3565b93506200028e818560208601620002e4565b62000299816200037f565b840191505092915050565b60006020820190508181036000830152620002c0818462000263565b905092915050565b600081519050919050565b600082825260208201905092915050565b60005b8381101562000304578082015181840152602081019050620002e7565b8381111562000314576000848401525b50505050565b600060028204905060018216806200033357607f821691505b602082108114156200034a576200034962000350565b5b50919050565b7f4e487b7100000000000000000000000000000000000000000000000000000000600052602260045260246000fd5b6000601f19601f8301169050919050565b612e5e80620003a06000396000f3fe608060405234801561001057600080fd5b50600436106100ea5760003560e01c80636352211e1161008c578063a22cb46511610066578063a22cb4651461025b578063b88d4fde14610277578063c87b56dd14610293578063e985e9c5146102c3576100ea565b80636352211e146101dd57806370a082311461020d57806395d89b411461023d576100ea565b8063095ea7b3116100c8578063095ea7b31461016d57806323b872dd1461018957806339fa8daf146101a557806342842e0e146101c1576100ea565b806301ffc9a7146100ef57806306fdde031461011f578063081812fc1461013d575b600080fd5b61010960048036038101906101049190611df9565b6102f3565b6040516101169190612285565b60405180910390f35b6101276103d5565b60405161013491906122a0565b60405180910390f35b61015760048036038101906101529190611e8c565b610467565b604051610164919061221e565b60405180910390f35b61018760048036038101906101829190611dbd565b6104ec565b005b6101a3600480360381019061019e9190611cb7565b610604565b005b6101bf60048036038101906101ba9190611e4b565b610664565b005b6101db60048036038101906101d69190611cb7565b6106dc565b005b6101f760048036038101906101f29190611e8c565b6106fc565b604051610204919061221e565b60405180910390f35b61022760048036038101906102229190611c52565b6107ae565b6040516102349190612500565b60405180910390f35b610245610866565b60405161025291906122a0565b60405180910390f35b61027560048036038101906102709190611d81565b6108f8565b005b610291600480360381019061028c9190611d06565b61090e565b005b6102ad60048036038101906102a89190611e8c565b610970565b6040516102ba91906122a0565b60405180910390f35b6102dd60048036038101906102d89190611c7b565b610ac2565b6040516102ea9190612285565b60405180910390f35b60007f80ac58cd000000000000000000000000000000000000000000000000000000007bffffffffffffffffffffffffffffffffffffffffffffffffffffffff1916827bffffffffffffffffffffffffffffffffffffffffffffffffffffffff191614806103be57507f5b5e139f000000000000000000000000000000000000000000000000000000007bffffffffffffffffffffffffffffffffffffffffffffffffffffffff1916827bffffffffffffffffffffffffffffffffffffffffffffffffffffffff1916145b806103ce57506103cd82610bef565b5b9050919050565b6060600080546103e490612756565b80601f016020809104026020016040519081016040528092919081815260200182805461041090612756565b801561045d5780601f106104325761010080835404028352916020019161045d565b820191906000526020600020905b81548152906001019060200180831161044057829003601f168201915b5050505050905090565b600061047282610c59565b6104b1576040517f08c379a00000000000000000000000000000000000000000000000000000000081526004016104a890612480565b60405180910390fd5b6004600083815260200190815260200160002060009054906101000a900473ffffffffffffffffffffffffffffffffffffffff169050919050565b60006104f7826106fc565b90508073ffffffffffffffffffffffffffffffffffffffff168373ffffffffffffffffffffffffffffffffffffffff161415610568576040517f08c379a000000000000000000000000000000000000000000000000000000000815260040161055f906124c0565b60405180910390fd5b8073ffffffffffffffffffffffffffffffffffffffff16610587610cc5565b73ffffffffffffffffffffffffffffffffffffffff1614806105b657506105b5816105b0610cc5565b610ac2565b5b6105f5576040517f08c379a00000000000000000000000000000000000000000000000000000000081526004016105ec906123c0565b60405180910390fd5b6105ff8383610ccd565b505050565b61061561060f610cc5565b82610d86565b610654576040517f08c379a000000000000000000000000000000000000000000000000000000000815260040161064b906124e0565b60405180910390fd5b61065f838383610e64565b505050565b600061067060076110cb565b905060008260405160200161068591906121fc565b60405160208183030381529060405290506106a033836110d9565b6106aa82826110f7565b6106b4600761116b565b6106d7604051806060016040528060258152602001612e04602591398333611181565b505050565b6106f78383836040518060200160405280600081525061090e565b505050565b6000806002600084815260200190815260200160002060009054906101000a900473ffffffffffffffffffffffffffffffffffffffff169050600073ffffffffffffffffffffffffffffffffffffffff168173ffffffffffffffffffffffffffffffffffffffff1614156107a5576040517f08c379a000000000000000000000000000000000000000000000000000000000815260040161079c90612400565b60405180910390fd5b80915050919050565b60008073ffffffffffffffffffffffffffffffffffffffff168273ffffffffffffffffffffffffffffffffffffffff16141561081f576040517f08c379a0000000000000000000000000000000000000000000000000000000008152600401610816906123e0565b60405180910390fd5b600360008373ffffffffffffffffffffffffffffffffffffffff1673ffffffffffffffffffffffffffffffffffffffff168152602001908152602001600020549050919050565b60606001805461087590612756565b80601f01602080910402602001604051908101604052809291908181526020018280546108a190612756565b80156108ee5780601f106108c3576101008083540402835291602001916108ee565b820191906000526020600020905b8154815290600101906020018083116108d157829003601f168201915b5050505050905090565b61090a610903610cc5565b8383611220565b5050565b61091f610919610cc5565b83610d86565b61095e576040517f08c379a0000000000000000000000000000000000000000000000000000000008152600401610955906124e0565b60405180910390fd5b61096a8484848461138d565b50505050565b606061097b82610c59565b6109ba576040517f08c379a00000000000000000000000000000000000000000000000000000000081526004016109b190612460565b60405180910390fd5b60006006600084815260200190815260200160002080546109da90612756565b80601f0160208091040260200160405190810160405280929190818152602001828054610a0690612756565b8015610a535780601f10610a2857610100808354040283529160200191610a53565b820191906000526020600020905b815481529060010190602001808311610a3657829003601f168201915b505050505090506000610a646113e9565b9050600081511415610a7a578192505050610abd565b600082511115610aaf578082604051602001610a979291906121d8565b60405160208183030381529060405292505050610abd565b610ab884611400565b925050505b919050565b6000600560008473ffffffffffffffffffffffffffffffffffffffff1673ffffffffffffffffffffffffffffffffffffffff16815260200190815260200160002060008373ffffffffffffffffffffffffffffffffffffffff1673ffffffffffffffffffffffffffffffffffffffff16815260200190815260200160002060009054906101000a900460ff16905092915050565b610bec81604051602401610b6a91906122a0565b6040516020818303038152906040527f41304fac000000000000000000000000000000000000000000000000000000007bffffffffffffffffffffffffffffffffffffffffffffffffffffffff19166020820180517bffffffffffffffffffffffffffffffffffffffffffffffffffffffff83818316178352505050506114a7565b50565b60007f01ffc9a7000000000000000000000000000000000000000000000000000000007bffffffffffffffffffffffffffffffffffffffffffffffffffffffff1916827bffffffffffffffffffffffffffffffffffffffffffffffffffffffff1916149050919050565b60008073ffffffffffffffffffffffffffffffffffffffff166002600084815260200190815260200160002060009054906101000a900473ffffffffffffffffffffffffffffffffffffffff1673ffffffffffffffffffffffffffffffffffffffff1614159050919050565b600033905090565b816004600083815260200190815260200160002060006101000a81548173ffffffffffffffffffffffffffffffffffffffff021916908373ffffffffffffffffffffffffffffffffffffffff160217905550808273ffffffffffffffffffffffffffffffffffffffff16610d40836106fc565b73ffffffffffffffffffffffffffffffffffffffff167f8c5be1e5ebec7d5bd14f71427d1e84f3dd0314c0f7b2291e5b200ac8c7c3b92560405160405180910390a45050565b6000610d9182610c59565b610dd0576040517f08c379a0000000000000000000000000000000000000000000000000000000008152600401610dc7906123a0565b60405180910390fd5b6000610ddb836106fc565b90508073ffffffffffffffffffffffffffffffffffffffff168473ffffffffffffffffffffffffffffffffffffffff161480610e4a57508373ffffffffffffffffffffffffffffffffffffffff16610e3284610467565b73ffffffffffffffffffffffffffffffffffffffff16145b80610e5b5750610e5a8185610ac2565b5b91505092915050565b8273ffffffffffffffffffffffffffffffffffffffff16610e84826106fc565b73ffffffffffffffffffffffffffffffffffffffff1614610eda576040517f08c379a0000000000000000000000000000000000000000000000000000000008152600401610ed190612320565b60405180910390fd5b600073ffffffffffffffffffffffffffffffffffffffff168273ffffffffffffffffffffffffffffffffffffffff161415610f4a576040517f08c379a0000000000000000000000000000000000000000000000000000000008152600401610f4190612360565b60405180910390fd5b610f558383836114d0565b610f60600082610ccd565b6001600360008573ffffffffffffffffffffffffffffffffffffffff1673ffffffffffffffffffffffffffffffffffffffff1681526020019081526020016000206000828254610fb0919061266c565b925050819055506001600360008473ffffffffffffffffffffffffffffffffffffffff1673ffffffffffffffffffffffffffffffffffffffff168152602001908152602001600020600082825461100791906125e5565b92505081905550816002600083815260200190815260200160002060006101000a81548173ffffffffffffffffffffffffffffffffffffffff021916908373ffffffffffffffffffffffffffffffffffffffff160217905550808273ffffffffffffffffffffffffffffffffffffffff168473ffffffffffffffffffffffffffffffffffffffff167fddf252ad1be2c89b69c2b068fc378daa952ba7f163c4a11628f55a4df523b3ef60405160405180910390a46110c68383836114d5565b505050565b600081600001549050919050565b6110f38282604051806020016040528060008152506114da565b5050565b61110082610c59565b61113f576040517f08c379a000000000000000000000000000000000000000000000000000000000815260040161113690612420565b60405180910390fd5b80600660008481526020019081526020016000209080519060200190611166929190611a76565b505050565b6001816000016000828254019250508190555050565b61121b838383604051602401611199939291906122c2565b6040516020818303038152906040527fe3849f79000000000000000000000000000000000000000000000000000000007bffffffffffffffffffffffffffffffffffffffffffffffffffffffff19166020820180517bffffffffffffffffffffffffffffffffffffffffffffffffffffffff83818316178352505050506114a7565b505050565b8173ffffffffffffffffffffffffffffffffffffffff168373ffffffffffffffffffffffffffffffffffffffff16141561128f576040517f08c379a000000000000000000000000000000000000000000000000000000000815260040161128690612380565b60405180910390fd5b80600560008573ffffffffffffffffffffffffffffffffffffffff1673ffffffffffffffffffffffffffffffffffffffff16815260200190815260200160002060008473ffffffffffffffffffffffffffffffffffffffff1673ffffffffffffffffffffffffffffffffffffffff16815260200190815260200160002060006101000a81548160ff0219169083151502179055508173ffffffffffffffffffffffffffffffffffffffff168373ffffffffffffffffffffffffffffffffffffffff167f17307eab39ab6107e8899845ad3d59bd9653f200f220920489ca2b5937696c31836040516113809190612285565b60405180910390a3505050565b611398848484610e64565b6113a484848484611535565b6113e3576040517f08c379a00000000000000000000000000000000000000000000000000000000081526004016113da90612300565b60405180910390fd5b50505050565b606060405180602001604052806000815250905090565b606061140b82610c59565b61144a576040517f08c379a0000000000000000000000000000000000000000000000000000000008152600401611441906124a0565b60405180910390fd5b60006114546113e9565b90506000815111611474576040518060200160405280600081525061149f565b8061147e846116cc565b60405160200161148f9291906121d8565b6040516020818303038152906040525b915050919050565b60008151905060006a636f6e736f6c652e6c6f679050602083016000808483855afa5050505050565b505050565b505050565b6114e48383611879565b6114f16000848484611535565b611530576040517f08c379a000000000000000000000000000000000000000000000000000000000815260040161152790612300565b60405180910390fd5b505050565b60006115568473ffffffffffffffffffffffffffffffffffffffff16611a53565b156116bf578373ffffffffffffffffffffffffffffffffffffffff1663150b7a0261157f610cc5565b8786866040518563ffffffff1660e01b81526004016115a19493929190612239565b602060405180830381600087803b1580156115bb57600080fd5b505af19250505080156115ec57506040513d601f19601f820116820180604052508101906115e99190611e22565b60015b61166f573d806000811461161c576040519150601f19603f3d011682016040523d82523d6000602084013e611621565b606091505b50600081511415611667576040517f08c379a000000000000000000000000000000000000000000000000000000000815260040161165e90612300565b60405180910390fd5b805181602001fd5b63150b7a0260e01b7bffffffffffffffffffffffffffffffffffffffffffffffffffffffff1916817bffffffffffffffffffffffffffffffffffffffffffffffffffffffff1916149150506116c4565b600190505b949350505050565b60606000821415611714576040518060400160405280600181526020017f30000000000000000000000000000000000000000000000000000000000000008152509050611874565b600082905060005b6000821461174657808061172f906127b9565b915050600a8261173f919061263b565b915061171c565b60008167ffffffffffffffff811115611788577f4e487b7100000000000000000000000000000000000000000000000000000000600052604160045260246000fd5b6040519080825280601f01601f1916602001820160405280156117ba5781602001600182028036833780820191505090505b5090505b6000851461186d576001826117d3919061266c565b9150600a856117e29190612802565b60306117ee91906125e5565b60f81b81838151811061182a577f4e487b7100000000000000000000000000000000000000000000000000000000600052603260045260246000fd5b60200101907effffffffffffffffffffffffffffffffffffffffffffffffffffffffffffff1916908160001a905350600a85611866919061263b565b94506117be565b8093505050505b919050565b600073ffffffffffffffffffffffffffffffffffffffff168273ffffffffffffffffffffffffffffffffffffffff1614156118e9576040517f08c379a00000000000000000000000000000000000000000000000000000000081526004016118e090612440565b60405180910390fd5b6118f281610c59565b15611932576040517f08c379a000000000000000000000000000000000000000000000000000000000815260040161192990612340565b60405180910390fd5b61193e600083836114d0565b6001600360008473ffffffffffffffffffffffffffffffffffffffff1673ffffffffffffffffffffffffffffffffffffffff168152602001908152602001600020600082825461198e91906125e5565b92505081905550816002600083815260200190815260200160002060006101000a81548173ffffffffffffffffffffffffffffffffffffffff021916908373ffffffffffffffffffffffffffffffffffffffff160217905550808273ffffffffffffffffffffffffffffffffffffffff16600073ffffffffffffffffffffffffffffffffffffffff167fddf252ad1be2c89b69c2b068fc378daa952ba7f163c4a11628f55a4df523b3ef60405160405180910390a4611a4f600083836114d5565b5050565b6000808273ffffffffffffffffffffffffffffffffffffffff163b119050919050565b828054611a8290612756565b90600052602060002090601f016020900481019282611aa45760008555611aeb565b82601f10611abd57805160ff1916838001178555611aeb565b82800160010185558215611aeb579182015b82811115611aea578251825591602001919060010190611acf565b5b509050611af89190611afc565b5090565b5b80821115611b15576000816000905550600101611afd565b5090565b6000611b2c611b2784612540565b61251b565b905082815260208101848484011115611b4457600080fd5b611b4f848285612714565b509392505050565b6000611b6a611b6584612571565b61251b565b905082815260208101848484011115611b8257600080fd5b611b8d848285612714565b509392505050565b600081359050611ba481612da7565b92915050565b600081359050611bb981612dbe565b92915050565b600081359050611bce81612dd5565b92915050565b600081519050611be381612dd5565b92915050565b600082601f830112611bfa57600080fd5b8135611c0a848260208601611b19565b91505092915050565b600082601f830112611c2457600080fd5b8135611c34848260208601611b57565b91505092915050565b600081359050611c4c81612dec565b92915050565b600060208284031215611c6457600080fd5b6000611c7284828501611b95565b91505092915050565b60008060408385031215611c8e57600080fd5b6000611c9c85828601611b95565b9250506020611cad85828601611b95565b9150509250929050565b600080600060608486031215611ccc57600080fd5b6000611cda86828701611b95565b9350506020611ceb86828701611b95565b9250506040611cfc86828701611c3d565b9150509250925092565b60008060008060808587031215611d1c57600080fd5b6000611d2a87828801611b95565b9450506020611d3b87828801611b95565b9350506040611d4c87828801611c3d565b925050606085013567ffffffffffffffff811115611d6957600080fd5b611d7587828801611be9565b91505092959194509250565b60008060408385031215611d9457600080fd5b6000611da285828601611b95565b9250506020611db385828601611baa565b9150509250929050565b60008060408385031215611dd057600080fd5b6000611dde85828601611b95565b9250506020611def85828601611c3d565b9150509250929050565b600060208284031215611e0b57600080fd5b6000611e1984828501611bbf565b91505092915050565b600060208284031215611e3457600080fd5b6000611e4284828501611bd4565b91505092915050565b600060208284031215611e5d57600080fd5b600082013567ffffffffffffffff811115611e7757600080fd5b611e8384828501611c13565b91505092915050565b600060208284031215611e9e57600080fd5b6000611eac84828501611c3d565b91505092915050565b611ebe816126a0565b82525050565b611ecd816126b2565b82525050565b6000611ede826125a2565b611ee881856125b8565b9350611ef8818560208601612723565b611f01816128ef565b840191505092915050565b6000611f17826125ad565b611f2181856125c9565b9350611f31818560208601612723565b611f3a816128ef565b840191505092915050565b6000611f50826125ad565b611f5a81856125da565b9350611f6a818560208601612723565b80840191505092915050565b6000611f836032836125c9565b9150611f8e82612900565b604082019050919050565b6000611fa66025836125c9565b9150611fb18261294f565b604082019050919050565b6000611fc9601c836125c9565b9150611fd48261299e565b602082019050919050565b6000611fec6024836125c9565b9150611ff7826129c7565b604082019050919050565b600061200f6019836125c9565b915061201a82612a16565b602082019050919050565b6000612032602c836125c9565b915061203d82612a3f565b604082019050919050565b60006120556038836125c9565b915061206082612a8e565b604082019050919050565b6000612078602a836125c9565b915061208382612add565b604082019050919050565b600061209b6029836125c9565b91506120a682612b2c565b604082019050919050565b60006120be602e836125c9565b91506120c982612b7b565b604082019050919050565b60006120e16020836125c9565b91506120ec82612bca565b602082019050919050565b60006121046031836125c9565b915061210f82612bf3565b604082019050919050565b6000612127602c836125c9565b915061213282612c42565b604082019050919050565b600061214a602f836125c9565b915061215582612c91565b604082019050919050565b600061216d6021836125c9565b915061217882612ce0565b604082019050919050565b6000612190601d836125da565b915061219b82612d2f565b601d82019050919050565b60006121b36031836125c9565b91506121be82612d58565b604082019050919050565b6121d28161270a565b82525050565b60006121e48285611f45565b91506121f08284611f45565b91508190509392505050565b600061220782612183565b91506122138284611f45565b915081905092915050565b60006020820190506122336000830184611eb5565b92915050565b600060808201905061224e6000830187611eb5565b61225b6020830186611eb5565b61226860408301856121c9565b818103606083015261227a8184611ed3565b905095945050505050565b600060208201905061229a6000830184611ec4565b92915050565b600060208201905081810360008301526122ba8184611f0c565b905092915050565b600060608201905081810360008301526122dc8186611f0c565b90506122eb60208301856121c9565b6122f86040830184611eb5565b949350505050565b6000602082019050818103600083015261231981611f76565b9050919050565b6000602082019050818103600083015261233981611f99565b9050919050565b6000602082019050818103600083015261235981611fbc565b9050919050565b6000602082019050818103600083015261237981611fdf565b9050919050565b6000602082019050818103600083015261239981612002565b9050919050565b600060208201905081810360008301526123b981612025565b9050919050565b600060208201905081810360008301526123d981612048565b9050919050565b600060208201905081810360008301526123f98161206b565b9050919050565b600060208201905081810360008301526124198161208e565b9050919050565b60006020820190508181036000830152612439816120b1565b9050919050565b60006020820190508181036000830152612459816120d4565b9050919050565b60006020820190508181036000830152612479816120f7565b9050919050565b600060208201905081810360008301526124998161211a565b9050919050565b600060208201905081810360008301526124b98161213d565b9050919050565b600060208201905081810360008301526124d981612160565b9050919050565b600060208201905081810360008301526124f9816121a6565b9050919050565b600060208201905061251560008301846121c9565b92915050565b6000612525612536565b90506125318282612788565b919050565b6000604051905090565b600067ffffffffffffffff82111561255b5761255a6128c0565b5b612564826128ef565b9050602081019050919050565b600067ffffffffffffffff82111561258c5761258b6128c0565b5b612595826128ef565b9050602081019050919050565b600081519050919050565b600081519050919050565b600082825260208201905092915050565b600082825260208201905092915050565b600081905092915050565b60006125f08261270a565b91506125fb8361270a565b9250827fffffffffffffffffffffffffffffffffffffffffffffffffffffffffffffffff038211156126305761262f612833565b5b828201905092915050565b60006126468261270a565b91506126518361270a565b92508261266157612660612862565b5b828204905092915050565b60006126778261270a565b91506126828361270a565b92508282101561269557612694612833565b5b828203905092915050565b60006126ab826126ea565b9050919050565b60008115159050919050565b60007fffffffff0000000000000000000000000000000000000000000000000000000082169050919050565b600073ffffffffffffffffffffffffffffffffffffffff82169050919050565b6000819050919050565b82818337600083830152505050565b60005b83811015612741578082015181840152602081019050612726565b83811115612750576000848401525b50505050565b6000600282049050600182168061276e57607f821691505b6020821081141561278257612781612891565b5b50919050565b612791826128ef565b810181811067ffffffffffffffff821117156127b0576127af6128c0565b5b80604052505050565b60006127c48261270a565b91507fffffffffffffffffffffffffffffffffffffffffffffffffffffffffffffffff8214156127f7576127f6612833565b5b600182019050919050565b600061280d8261270a565b91506128188361270a565b92508261282857612827612862565b5b828206905092915050565b7f4e487b7100000000000000000000000000000000000000000000000000000000600052601160045260246000fd5b7f4e487b7100000000000000000000000000000000000000000000000000000000600052601260045260246000fd5b7f4e487b7100000000000000000000000000000000000000000000000000000000600052602260045260246000fd5b7f4e487b7100000000000000000000000000000000000000000000000000000000600052604160045260246000fd5b6000601f19601f8301169050919050565b7f4552433732313a207472616e7366657220746f206e6f6e20455243373231526560008201527f63656976657220696d706c656d656e7465720000000000000000000000000000602082015250565b7f4552433732313a207472616e736665722066726f6d20696e636f72726563742060008201527f6f776e6572000000000000000000000000000000000000000000000000000000602082015250565b7f4552433732313a20746f6b656e20616c7265616479206d696e74656400000000600082015250565b7f4552433732313a207472616e7366657220746f20746865207a65726f2061646460008201527f7265737300000000000000000000000000000000000000000000000000000000602082015250565b7f4552433732313a20617070726f766520746f2063616c6c657200000000000000600082015250565b7f4552433732313a206f70657261746f7220717565727920666f72206e6f6e657860008201527f697374656e7420746f6b656e0000000000000000000000000000000000000000602082015250565b7f4552433732313a20617070726f76652063616c6c6572206973206e6f74206f7760008201527f6e6572206e6f7220617070726f76656420666f7220616c6c0000000000000000602082015250565b7f4552433732313a2062616c616e636520717565727920666f7220746865207a6560008201527f726f206164647265737300000000000000000000000000000000000000000000602082015250565b7f4552433732313a206f776e657220717565727920666f72206e6f6e657869737460008201527f656e7420746f6b656e0000000000000000000000000000000000000000000000602082015250565b7f45524337323155524953746f726167653a2055524920736574206f66206e6f6e60008201527f6578697374656e7420746f6b656e000000000000000000000000000000000000602082015250565b7f4552433732313a206d696e7420746f20746865207a65726f2061646472657373600082015250565b7f45524337323155524953746f726167653a2055524920717565727920666f722060008201527f6e6f6e6578697374656e7420746f6b656e000000000000000000000000000000602082015250565b7f4552433732313a20617070726f76656420717565727920666f72206e6f6e657860008201527f697374656e7420746f6b656e0000000000000000000000000000000000000000602082015250565b7f4552433732314d657461646174613a2055524920717565727920666f72206e6f60008201527f6e6578697374656e7420746f6b656e0000000000000000000000000000000000602082015250565b7f4552433732313a20617070726f76616c20746f2063757272656e74206f776e6560008201527f7200000000000000000000000000000000000000000000000000000000000000602082015250565b7f646174613a6170706c69636174696f6e2f6a736f6e3b6261736536342c000000600082015250565b7f4552433732313a207472616e736665722063616c6c6572206973206e6f74206f60008201527f776e6572206e6f7220617070726f766564000000000000000000000000000000602082015250565b612db0816126a0565b8114612dbb57600080fd5b50565b612dc7816126b2565b8114612dd257600080fd5b50565b612dde816126be565b8114612de957600080fd5b50565b612df58161270a565b8114612e0057600080fd5b5056fe416e204e465420772f20494420257320686173206265656e206d696e74656420746f202573a26469706673582212200093894cab2f950b3903509dbd6f81101a1830757cb69509534bfb74e583592364736f6c634300080400334e465420636f6e747261637420686173206265656e206465706c6f7965642e20576f616821",
  "linkReferences": {},
  "deployedLinkReferences": {}
}