{
  "_format": "hh-sol-artifact-1",
  "contractName": "MyEpicNFT",
  "sourceName": "contracts/MyEpicNFT.sol",
  "abi": [
    {
      "inputs": [],
      "stateMutability": "nonpayable",
      "type": "constructor"
    },
    {
      "anonymous": false,
      "inputs": [
        {
          "indexed": true,
          "internalType": "address",
          "name": "owner",
          "type": "address"
        },
        {
          "indexed": true,
          "internalType": "address",
          "name": "approved",
          "type": "address"
        },
        {
          "indexed": true,
          "internalType": "uint256",
          "name": "tokenId",
          "type": "uint256"
        }
      ],
      "name": "Approval",
      "type": "event"
    },
    {
      "anonymous": false,
      "inputs": [
        {
          "indexed": true,
          "internalType": "address",
          "name": "owner",
          "type": "address"
        },
        {
          "indexed": true,
          "internalType": "address",
          "name": "operator",
          "type": "address"
        },
        {
          "indexed": false,
          "internalType": "bool",
          "name": "approved",
          "type": "bool"
        }
      ],
      "name": "ApprovalForAll",
      "type": "event"
    },
    {
      "anonymous": false,
      "inputs": [
        {
          "indexed": true,
          "internalType": "address",
          "name": "from",
          "type": "address"
        },
        {
          "indexed": true,
          "internalType": "address",
          "name": "to",
          "type": "address"
        },
        {
          "indexed": true,
          "internalType": "uint256",
          "name": "tokenId",
          "type": "uint256"
        }
      ],
      "name": "Transfer",
      "type": "event"
    },
    {
      "inputs": [
        {
          "internalType": "address",
          "name": "to",
          "type": "address"
        },
        {
          "internalType": "uint256",
          "name": "tokenId",
          "type": "uint256"
        }
      ],
      "name": "approve",
      "outputs": [],
      "stateMutability": "nonpayable",
      "type": "function"
    },
    {
      "inputs": [
        {
          "internalType": "address",
          "name": "owner",
          "type": "address"
        }
      ],
      "name": "balanceOf",
      "outputs": [
        {
          "internalType": "uint256",
          "name": "",
          "type": "uint256"
        }
      ],
      "stateMutability": "view",
      "type": "function"
    },
    {
      "inputs": [
        {
          "internalType": "uint256",
          "name": "tokenId",
          "type": "uint256"
        }
      ],
      "name": "getApproved",
      "outputs": [
        {
          "internalType": "address",
          "name": "",
          "type": "address"
        }
      ],
      "stateMutability": "view",
      "type": "function"
    },
    {
      "inputs": [
        {
          "internalType": "address",
          "name": "owner",
          "type": "address"
        },
        {
          "internalType": "address",
          "name": "operator",
          "type": "address"
        }
      ],
      "name": "isApprovedForAll",
      "outputs": [
        {
          "internalType": "bool",
          "name": "",
          "type": "bool"
        }
      ],
      "stateMutability": "view",
      "type": "function"
    },
    {
      "inputs": [
        {
          "internalType": "string",
          "name": "jsonData",
          "type": "string"
        }
      ],
      "name": "makeAnEpicNFT",
      "outputs": [],
      "stateMutability": "nonpayable",
      "type": "function"
    },
    {
      "inputs": [],
      "name": "name",
      "outputs": [
        {
          "internalType": "string",
          "name": "",
          "type": "string"
        }
      ],
      "stateMutability": "view",
      "type": "function"
    },
    {
      "inputs": [
        {
          "internalType": "uint256",
          "name": "tokenId",
          "type": "uint256"
        }
      ],
      "name": "ownerOf",
      "outputs": [
        {
          "internalType": "address",
          "name": "",
          "type": "address"
        }
      ],
      "stateMutability": "view",
      "type": "function"
    },
    {
      "inputs": [
        {
          "internalType": "address",
          "name": "from",
          "type": "address"
        },
        {
          "internalType": "address",
          "name": "to",
          "type": "address"
        },
        {
          "internalType": "uint256",
          "name": "tokenId",
          "type": "uint256"
        }
      ],
      "name": "safeTransferFrom",
      "outputs": [],
      "stateMutability": "nonpayable",
      "type": "function"
    },
    {
      "inputs": [
        {
          "internalType": "address",
          "name": "from",
          "type": "address"
        },
        {
          "internalType": "address",
          "name": "to",
          "type": "address"
        },
        {
          "internalType": "uint256",
          "name": "tokenId",
          "type": "uint256"
        },
        {
          "internalType": "bytes",
          "name": "_data",
          "type": "bytes"
        }
      ],
      "name": "safeTransferFrom",
      "outputs": [],
      "stateMutability": "nonpayable",
      "type": "function"
    },
    {
      "inputs": [
        {
          "internalType": "address",
          "name": "operator",
          "type": "address"
        },
        {
          "internalType": "bool",
          "name": "approved",
          "type": "bool"
        }
      ],
      "name": "setApprovalForAll",
      "outputs": [],
      "stateMutability": "nonpayable",
      "type": "function"
    },
    {
      "inputs": [
        {
          "internalType": "bytes4",
          "name": "interfaceId",
          "type": "bytes4"
        }
      ],
      "name": "supportsInterface",
      "outputs": [
        {
          "internalType": "bool",
          "name": "",
          "type": "bool"
        }
      ],
      "stateMutability": "view",
      "type": "function"
    },
    {
      "inputs": [],
      "name": "symbol",
      "outputs": [
        {
          "internalType": "string",
          "name": "",
          "type": "string"
        }
      ],
      "stateMutability": "view",
      "type": "function"
    },
    {
      "inputs": [
        {
          "internalType": "uint256",
          "name": "tokenId",
          "type": "uint256"
        }
      ],
      "name": "tokenURI",
      "outputs": [
        {
          "internalType": "string",
          "name": "",
          "type": "string"
        }
      ],
      "stateMutability": "view",
      "type": "function"
    },
    {
      "inputs": [
        {
          "internalType": "address",
          "name": "from",
          "type": "address"
        },
        {
          "internalType": "address",
          "name": "to",
          "type": "address"
        },
        {
          "internalType": "uint256",
          "name": "tokenId",
          "type": "uint256"
        }
      ],
      "name": "transferFrom",
      "outputs": [],
      "stateMutability": "nonpayable",
      "type": "function"
    }
  ],
  "bytecode": "0x60806040523480156200001157600080fd5b506040518060400160405280600c81526020017f4d4d4120466967687465727300000000000000000000000000000000000000008152506040518060400160405280600581526020017f444a4d4d41000000000000000000000000000000000000000000000000000000815250816000908051906020019062000096929190620001cf565b508060019080519060200190620000af929190620001cf565b505050620000fd6040518060400160405280601e81526020017f54686973206973206d79204e465420636f6e74726163742e20576f61682100008152506200010360201b62000b671760201c565b620003ac565b620001a3816040516024016200011a9190620002c0565b6040516020818303038152906040527f41304fac000000000000000000000000000000000000000000000000000000007bffffffffffffffffffffffffffffffffffffffffffffffffffffffff19166020820180517bffffffffffffffffffffffffffffffffffffffffffffffffffffffff8381831617835250505050620001a660201b60201c565b50565b60008151905060006a636f6e736f6c652e6c6f679050602083016000808483855afa5050505050565b828054620001dd9062000336565b90600052602060002090601f0160209004810192826200020157600085556200024d565b82601f106200021c57805160ff19168380011785556200024d565b828001600101855582156200024d579182015b828111156200024c5782518255916020019190600101906200022f565b5b5090506200025c919062000260565b5090565b5b808211156200027b57600081600090555060010162000261565b5090565b60006200028c82620002e4565b620002988185620002ef565b9350620002aa81856020860162000300565b620002b5816200039b565b840191505092915050565b60006020820190508181036000830152620002dc81846200027f565b905092915050565b600081519050919050565b600082825260208201905092915050565b60005b838110156200032057808201518184015260208101905062000303565b8381111562000330576000848401525b50505050565b600060028204905060018216806200034f57607f821691505b602082108114156200036657620003656200036c565b5b50919050565b7f4e487b7100000000000000000000000000000000000000000000000000000000600052602260045260246000fd5b6000601f19601f8301169050919050565b612e6f80620003bc6000396000f3fe608060405234801561001057600080fd5b50600436106100ea5760003560e01c80636352211e1161008c578063a22cb46511610066578063a22cb4651461025b578063b88d4fde14610277578063c87b56dd14610293578063e985e9c5146102c3576100ea565b80636352211e146101dd57806370a082311461020d57806395d89b411461023d576100ea565b8063095ea7b3116100c8578063095ea7b31461016d57806323b872dd1461018957806339fa8daf146101a557806342842e0e146101c1576100ea565b806301ffc9a7146100ef57806306fdde031461011f578063081812fc1461013d575b600080fd5b61010960048036038101906101049190611e0a565b6102f3565b6040516101169190612296565b60405180910390f35b6101276103d5565b60405161013491906122b1565b60405180910390f35b61015760048036038101906101529190611e9d565b610467565b604051610164919061222f565b60405180910390f35b61018760048036038101906101829190611dce565b6104ec565b005b6101a3600480360381019061019e9190611cc8565b610604565b005b6101bf60048036038101906101ba9190611e5c565b610664565b005b6101db60048036038101906101d69190611cc8565b6106ed565b005b6101f760048036038101906101f29190611e9d565b61070d565b604051610204919061222f565b60405180910390f35b61022760048036038101906102229190611c63565b6107bf565b6040516102349190612511565b60405180910390f35b610245610877565b60405161025291906122b1565b60405180910390f35b61027560048036038101906102709190611d92565b610909565b005b610291600480360381019061028c9190611d17565b61091f565b005b6102ad60048036038101906102a89190611e9d565b610981565b6040516102ba91906122b1565b60405180910390f35b6102dd60048036038101906102d89190611c8c565b610ad3565b6040516102ea9190612296565b60405180910390f35b60007f80ac58cd000000000000000000000000000000000000000000000000000000007bffffffffffffffffffffffffffffffffffffffffffffffffffffffff1916827bffffffffffffffffffffffffffffffffffffffffffffffffffffffff191614806103be57507f5b5e139f000000000000000000000000000000000000000000000000000000007bffffffffffffffffffffffffffffffffffffffffffffffffffffffff1916827bffffffffffffffffffffffffffffffffffffffffffffffffffffffff1916145b806103ce57506103cd82610c00565b5b9050919050565b6060600080546103e490612767565b80601f016020809104026020016040519081016040528092919081815260200182805461041090612767565b801561045d5780601f106104325761010080835404028352916020019161045d565b820191906000526020600020905b81548152906001019060200180831161044057829003601f168201915b5050505050905090565b600061047282610c6a565b6104b1576040517f08c379a00000000000000000000000000000000000000000000000000000000081526004016104a890612491565b60405180910390fd5b6004600083815260200190815260200160002060009054906101000a900473ffffffffffffffffffffffffffffffffffffffff169050919050565b60006104f78261070d565b90508073ffffffffffffffffffffffffffffffffffffffff168373ffffffffffffffffffffffffffffffffffffffff161415610568576040517f08c379a000000000000000000000000000000000000000000000000000000000815260040161055f906124d1565b60405180910390fd5b8073ffffffffffffffffffffffffffffffffffffffff16610587610cd6565b73ffffffffffffffffffffffffffffffffffffffff1614806105b657506105b5816105b0610cd6565b610ad3565b5b6105f5576040517f08c379a00000000000000000000000000000000000000000000000000000000081526004016105ec906123d1565b60405180910390fd5b6105ff8383610cde565b505050565b61061561060f610cd6565b82610d97565b610654576040517f08c379a000000000000000000000000000000000000000000000000000000000815260040161064b906124f1565b60405180910390fd5b61065f838383610e75565b505050565b600061067060076110dc565b9050600082604051602001610685919061220d565b60405160208183030381529060405290506106a033836110ea565b6106aa8282611108565b6106b4600761117c565b6106d7604051806060016040528060258152602001612e15602591398333611192565b6106e86106e383610981565b610b67565b505050565b6107088383836040518060200160405280600081525061091f565b505050565b6000806002600084815260200190815260200160002060009054906101000a900473ffffffffffffffffffffffffffffffffffffffff169050600073ffffffffffffffffffffffffffffffffffffffff168173ffffffffffffffffffffffffffffffffffffffff1614156107b6576040517f08c379a00000000000000000000000000000000000000000000000000000000081526004016107ad90612411565b60405180910390fd5b80915050919050565b60008073ffffffffffffffffffffffffffffffffffffffff168273ffffffffffffffffffffffffffffffffffffffff161415610830576040517f08c379a0000000000000000000000000000000000000000000000000000000008152600401610827906123f1565b60405180910390fd5b600360008373ffffffffffffffffffffffffffffffffffffffff1673ffffffffffffffffffffffffffffffffffffffff168152602001908152602001600020549050919050565b60606001805461088690612767565b80601f01602080910402602001604051908101604052809291908181526020018280546108b290612767565b80156108ff5780601f106108d4576101008083540402835291602001916108ff565b820191906000526020600020905b8154815290600101906020018083116108e257829003601f168201915b5050505050905090565b61091b610914610cd6565b8383611231565b5050565b61093061092a610cd6565b83610d97565b61096f576040517f08c379a0000000000000000000000000000000000000000000000000000000008152600401610966906124f1565b60405180910390fd5b61097b8484848461139e565b50505050565b606061098c82610c6a565b6109cb576040517f08c379a00000000000000000000000000000000000000000000000000000000081526004016109c290612471565b60405180910390fd5b60006006600084815260200190815260200160002080546109eb90612767565b80601f0160208091040260200160405190810160405280929190818152602001828054610a1790612767565b8015610a645780601f10610a3957610100808354040283529160200191610a64565b820191906000526020600020905b815481529060010190602001808311610a4757829003601f168201915b505050505090506000610a756113fa565b9050600081511415610a8b578192505050610ace565b600082511115610ac0578082604051602001610aa89291906121e9565b60405160208183030381529060405292505050610ace565b610ac984611411565b925050505b919050565b6000600560008473ffffffffffffffffffffffffffffffffffffffff1673ffffffffffffffffffffffffffffffffffffffff16815260200190815260200160002060008373ffffffffffffffffffffffffffffffffffffffff1673ffffffffffffffffffffffffffffffffffffffff16815260200190815260200160002060009054906101000a900460ff16905092915050565b610bfd81604051602401610b7b91906122b1565b6040516020818303038152906040527f41304fac000000000000000000000000000000000000000000000000000000007bffffffffffffffffffffffffffffffffffffffffffffffffffffffff19166020820180517bffffffffffffffffffffffffffffffffffffffffffffffffffffffff83818316178352505050506114b8565b50565b60007f01ffc9a7000000000000000000000000000000000000000000000000000000007bffffffffffffffffffffffffffffffffffffffffffffffffffffffff1916827bffffffffffffffffffffffffffffffffffffffffffffffffffffffff1916149050919050565b60008073ffffffffffffffffffffffffffffffffffffffff166002600084815260200190815260200160002060009054906101000a900473ffffffffffffffffffffffffffffffffffffffff1673ffffffffffffffffffffffffffffffffffffffff1614159050919050565b600033905090565b816004600083815260200190815260200160002060006101000a81548173ffffffffffffffffffffffffffffffffffffffff021916908373ffffffffffffffffffffffffffffffffffffffff160217905550808273ffffffffffffffffffffffffffffffffffffffff16610d518361070d565b73ffffffffffffffffffffffffffffffffffffffff167f8c5be1e5ebec7d5bd14f71427d1e84f3dd0314c0f7b2291e5b200ac8c7c3b92560405160405180910390a45050565b6000610da282610c6a565b610de1576040517f08c379a0000000000000000000000000000000000000000000000000000000008152600401610dd8906123b1565b60405180910390fd5b6000610dec8361070d565b90508073ffffffffffffffffffffffffffffffffffffffff168473ffffffffffffffffffffffffffffffffffffffff161480610e5b57508373ffffffffffffffffffffffffffffffffffffffff16610e4384610467565b73ffffffffffffffffffffffffffffffffffffffff16145b80610e6c5750610e6b8185610ad3565b5b91505092915050565b8273ffffffffffffffffffffffffffffffffffffffff16610e958261070d565b73ffffffffffffffffffffffffffffffffffffffff1614610eeb576040517f08c379a0000000000000000000000000000000000000000000000000000000008152600401610ee290612331565b60405180910390fd5b600073ffffffffffffffffffffffffffffffffffffffff168273ffffffffffffffffffffffffffffffffffffffff161415610f5b576040517f08c379a0000000000000000000000000000000000000000000000000000000008152600401610f5290612371565b60405180910390fd5b610f668383836114e1565b610f71600082610cde565b6001600360008573ffffffffffffffffffffffffffffffffffffffff1673ffffffffffffffffffffffffffffffffffffffff1681526020019081526020016000206000828254610fc1919061267d565b925050819055506001600360008473ffffffffffffffffffffffffffffffffffffffff1673ffffffffffffffffffffffffffffffffffffffff168152602001908152602001600020600082825461101891906125f6565b92505081905550816002600083815260200190815260200160002060006101000a81548173ffffffffffffffffffffffffffffffffffffffff021916908373ffffffffffffffffffffffffffffffffffffffff160217905550808273ffffffffffffffffffffffffffffffffffffffff168473ffffffffffffffffffffffffffffffffffffffff167fddf252ad1be2c89b69c2b068fc378daa952ba7f163c4a11628f55a4df523b3ef60405160405180910390a46110d78383836114e6565b505050565b600081600001549050919050565b6111048282604051806020016040528060008152506114eb565b5050565b61111182610c6a565b611150576040517f08c379a000000000000000000000000000000000000000000000000000000000815260040161114790612431565b60405180910390fd5b80600660008481526020019081526020016000209080519060200190611177929190611a87565b505050565b6001816000016000828254019250508190555050565b61122c8383836040516024016111aa939291906122d3565b6040516020818303038152906040527fe3849f79000000000000000000000000000000000000000000000000000000007bffffffffffffffffffffffffffffffffffffffffffffffffffffffff19166020820180517bffffffffffffffffffffffffffffffffffffffffffffffffffffffff83818316178352505050506114b8565b505050565b8173ffffffffffffffffffffffffffffffffffffffff168373ffffffffffffffffffffffffffffffffffffffff1614156112a0576040517f08c379a000000000000000000000000000000000000000000000000000000000815260040161129790612391565b60405180910390fd5b80600560008573ffffffffffffffffffffffffffffffffffffffff1673ffffffffffffffffffffffffffffffffffffffff16815260200190815260200160002060008473ffffffffffffffffffffffffffffffffffffffff1673ffffffffffffffffffffffffffffffffffffffff16815260200190815260200160002060006101000a81548160ff0219169083151502179055508173ffffffffffffffffffffffffffffffffffffffff168373ffffffffffffffffffffffffffffffffffffffff167f17307eab39ab6107e8899845ad3d59bd9653f200f220920489ca2b5937696c31836040516113919190612296565b60405180910390a3505050565b6113a9848484610e75565b6113b584848484611546565b6113f4576040517f08c379a00000000000000000000000000000000000000000000000000000000081526004016113eb90612311565b60405180910390fd5b50505050565b606060405180602001604052806000815250905090565b606061141c82610c6a565b61145b576040517f08c379a0000000000000000000000000000000000000000000000000000000008152600401611452906124b1565b60405180910390fd5b60006114656113fa565b9050600081511161148557604051806020016040528060008152506114b0565b8061148f846116dd565b6040516020016114a09291906121e9565b6040516020818303038152906040525b915050919050565b60008151905060006a636f6e736f6c652e6c6f679050602083016000808483855afa5050505050565b505050565b505050565b6114f5838361188a565b6115026000848484611546565b611541576040517f08c379a000000000000000000000000000000000000000000000000000000000815260040161153890612311565b60405180910390fd5b505050565b60006115678473ffffffffffffffffffffffffffffffffffffffff16611a64565b156116d0578373ffffffffffffffffffffffffffffffffffffffff1663150b7a02611590610cd6565b8786866040518563ffffffff1660e01b81526004016115b2949392919061224a565b602060405180830381600087803b1580156115cc57600080fd5b505af19250505080156115fd57506040513d601f19601f820116820180604052508101906115fa9190611e33565b60015b611680573d806000811461162d576040519150601f19603f3d011682016040523d82523d6000602084013e611632565b606091505b50600081511415611678576040517f08c379a000000000000000000000000000000000000000000000000000000000815260040161166f90612311565b60405180910390fd5b805181602001fd5b63150b7a0260e01b7bffffffffffffffffffffffffffffffffffffffffffffffffffffffff1916817bffffffffffffffffffffffffffffffffffffffffffffffffffffffff1916149150506116d5565b600190505b949350505050565b60606000821415611725576040518060400160405280600181526020017f30000000000000000000000000000000000000000000000000000000000000008152509050611885565b600082905060005b60008214611757578080611740906127ca565b915050600a82611750919061264c565b915061172d565b60008167ffffffffffffffff811115611799577f4e487b7100000000000000000000000000000000000000000000000000000000600052604160045260246000fd5b6040519080825280601f01601f1916602001820160405280156117cb5781602001600182028036833780820191505090505b5090505b6000851461187e576001826117e4919061267d565b9150600a856117f39190612813565b60306117ff91906125f6565b60f81b81838151811061183b577f4e487b7100000000000000000000000000000000000000000000000000000000600052603260045260246000fd5b60200101907effffffffffffffffffffffffffffffffffffffffffffffffffffffffffffff1916908160001a905350600a85611877919061264c565b94506117cf565b8093505050505b919050565b600073ffffffffffffffffffffffffffffffffffffffff168273ffffffffffffffffffffffffffffffffffffffff1614156118fa576040517f08c379a00000000000000000000000000000000000000000000000000000000081526004016118f190612451565b60405180910390fd5b61190381610c6a565b15611943576040517f08c379a000000000000000000000000000000000000000000000000000000000815260040161193a90612351565b60405180910390fd5b61194f600083836114e1565b6001600360008473ffffffffffffffffffffffffffffffffffffffff1673ffffffffffffffffffffffffffffffffffffffff168152602001908152602001600020600082825461199f91906125f6565b92505081905550816002600083815260200190815260200160002060006101000a81548173ffffffffffffffffffffffffffffffffffffffff021916908373ffffffffffffffffffffffffffffffffffffffff160217905550808273ffffffffffffffffffffffffffffffffffffffff16600073ffffffffffffffffffffffffffffffffffffffff167fddf252ad1be2c89b69c2b068fc378daa952ba7f163c4a11628f55a4df523b3ef60405160405180910390a4611a60600083836114e6565b5050565b6000808273ffffffffffffffffffffffffffffffffffffffff163b119050919050565b828054611a9390612767565b90600052602060002090601f016020900481019282611ab55760008555611afc565b82601f10611ace57805160ff1916838001178555611afc565b82800160010185558215611afc579182015b82811115611afb578251825591602001919060010190611ae0565b5b509050611b099190611b0d565b5090565b5b80821115611b26576000816000905550600101611b0e565b5090565b6000611b3d611b3884612551565b61252c565b905082815260208101848484011115611b5557600080fd5b611b60848285612725565b509392505050565b6000611b7b611b7684612582565b61252c565b905082815260208101848484011115611b9357600080fd5b611b9e848285612725565b509392505050565b600081359050611bb581612db8565b92915050565b600081359050611bca81612dcf565b92915050565b600081359050611bdf81612de6565b92915050565b600081519050611bf481612de6565b92915050565b600082601f830112611c0b57600080fd5b8135611c1b848260208601611b2a565b91505092915050565b600082601f830112611c3557600080fd5b8135611c45848260208601611b68565b91505092915050565b600081359050611c5d81612dfd565b92915050565b600060208284031215611c7557600080fd5b6000611c8384828501611ba6565b91505092915050565b60008060408385031215611c9f57600080fd5b6000611cad85828601611ba6565b9250506020611cbe85828601611ba6565b9150509250929050565b600080600060608486031215611cdd57600080fd5b6000611ceb86828701611ba6565b9350506020611cfc86828701611ba6565b9250506040611d0d86828701611c4e565b9150509250925092565b60008060008060808587031215611d2d57600080fd5b6000611d3b87828801611ba6565b9450506020611d4c87828801611ba6565b9350506040611d5d87828801611c4e565b925050606085013567ffffffffffffffff811115611d7a57600080fd5b611d8687828801611bfa565b91505092959194509250565b60008060408385031215611da557600080fd5b6000611db385828601611ba6565b9250506020611dc485828601611bbb565b9150509250929050565b60008060408385031215611de157600080fd5b6000611def85828601611ba6565b9250506020611e0085828601611c4e565b9150509250929050565b600060208284031215611e1c57600080fd5b6000611e2a84828501611bd0565b91505092915050565b600060208284031215611e4557600080fd5b6000611e5384828501611be5565b91505092915050565b600060208284031215611e6e57600080fd5b600082013567ffffffffffffffff811115611e8857600080fd5b611e9484828501611c24565b91505092915050565b600060208284031215611eaf57600080fd5b6000611ebd84828501611c4e565b91505092915050565b611ecf816126b1565b82525050565b611ede816126c3565b82525050565b6000611eef826125b3565b611ef981856125c9565b9350611f09818560208601612734565b611f1281612900565b840191505092915050565b6000611f28826125be565b611f3281856125da565b9350611f42818560208601612734565b611f4b81612900565b840191505092915050565b6000611f61826125be565b611f6b81856125eb565b9350611f7b818560208601612734565b80840191505092915050565b6000611f946032836125da565b9150611f9f82612911565b604082019050919050565b6000611fb76025836125da565b9150611fc282612960565b604082019050919050565b6000611fda601c836125da565b9150611fe5826129af565b602082019050919050565b6000611ffd6024836125da565b9150612008826129d8565b604082019050919050565b60006120206019836125da565b915061202b82612a27565b602082019050919050565b6000612043602c836125da565b915061204e82612a50565b604082019050919050565b60006120666038836125da565b915061207182612a9f565b604082019050919050565b6000612089602a836125da565b915061209482612aee565b604082019050919050565b60006120ac6029836125da565b91506120b782612b3d565b604082019050919050565b60006120cf602e836125da565b91506120da82612b8c565b604082019050919050565b60006120f26020836125da565b91506120fd82612bdb565b602082019050919050565b60006121156031836125da565b915061212082612c04565b604082019050919050565b6000612138602c836125da565b915061214382612c53565b604082019050919050565b600061215b602f836125da565b915061216682612ca2565b604082019050919050565b600061217e6021836125da565b915061218982612cf1565b604082019050919050565b60006121a1601d836125eb565b91506121ac82612d40565b601d82019050919050565b60006121c46031836125da565b91506121cf82612d69565b604082019050919050565b6121e38161271b565b82525050565b60006121f58285611f56565b91506122018284611f56565b91508190509392505050565b600061221882612194565b91506122248284611f56565b915081905092915050565b60006020820190506122446000830184611ec6565b92915050565b600060808201905061225f6000830187611ec6565b61226c6020830186611ec6565b61227960408301856121da565b818103606083015261228b8184611ee4565b905095945050505050565b60006020820190506122ab6000830184611ed5565b92915050565b600060208201905081810360008301526122cb8184611f1d565b905092915050565b600060608201905081810360008301526122ed8186611f1d565b90506122fc60208301856121da565b6123096040830184611ec6565b949350505050565b6000602082019050818103600083015261232a81611f87565b9050919050565b6000602082019050818103600083015261234a81611faa565b9050919050565b6000602082019050818103600083015261236a81611fcd565b9050919050565b6000602082019050818103600083015261238a81611ff0565b9050919050565b600060208201905081810360008301526123aa81612013565b9050919050565b600060208201905081810360008301526123ca81612036565b9050919050565b600060208201905081810360008301526123ea81612059565b9050919050565b6000602082019050818103600083015261240a8161207c565b9050919050565b6000602082019050818103600083015261242a8161209f565b9050919050565b6000602082019050818103600083015261244a816120c2565b9050919050565b6000602082019050818103600083015261246a816120e5565b9050919050565b6000602082019050818103600083015261248a81612108565b9050919050565b600060208201905081810360008301526124aa8161212b565b9050919050565b600060208201905081810360008301526124ca8161214e565b9050919050565b600060208201905081810360008301526124ea81612171565b9050919050565b6000602082019050818103600083015261250a816121b7565b9050919050565b600060208201905061252660008301846121da565b92915050565b6000612536612547565b90506125428282612799565b919050565b6000604051905090565b600067ffffffffffffffff82111561256c5761256b6128d1565b5b61257582612900565b9050602081019050919050565b600067ffffffffffffffff82111561259d5761259c6128d1565b5b6125a682612900565b9050602081019050919050565b600081519050919050565b600081519050919050565b600082825260208201905092915050565b600082825260208201905092915050565b600081905092915050565b60006126018261271b565b915061260c8361271b565b9250827fffffffffffffffffffffffffffffffffffffffffffffffffffffffffffffffff0382111561264157612640612844565b5b828201905092915050565b60006126578261271b565b91506126628361271b565b92508261267257612671612873565b5b828204905092915050565b60006126888261271b565b91506126938361271b565b9250828210156126a6576126a5612844565b5b828203905092915050565b60006126bc826126fb565b9050919050565b60008115159050919050565b60007fffffffff0000000000000000000000000000000000000000000000000000000082169050919050565b600073ffffffffffffffffffffffffffffffffffffffff82169050919050565b6000819050919050565b82818337600083830152505050565b60005b83811015612752578082015181840152602081019050612737565b83811115612761576000848401525b50505050565b6000600282049050600182168061277f57607f821691505b60208210811415612793576127926128a2565b5b50919050565b6127a282612900565b810181811067ffffffffffffffff821117156127c1576127c06128d1565b5b80604052505050565b60006127d58261271b565b91507fffffffffffffffffffffffffffffffffffffffffffffffffffffffffffffffff82141561280857612807612844565b5b600182019050919050565b600061281e8261271b565b91506128298361271b565b92508261283957612838612873565b5b828206905092915050565b7f4e487b7100000000000000000000000000000000000000000000000000000000600052601160045260246000fd5b7f4e487b7100000000000000000000000000000000000000000000000000000000600052601260045260246000fd5b7f4e487b7100000000000000000000000000000000000000000000000000000000600052602260045260246000fd5b7f4e487b7100000000000000000000000000000000000000000000000000000000600052604160045260246000fd5b6000601f19601f8301169050919050565b7f4552433732313a207472616e7366657220746f206e6f6e20455243373231526560008201527f63656976657220696d706c656d656e7465720000000000000000000000000000602082015250565b7f4552433732313a207472616e736665722066726f6d20696e636f72726563742060008201527f6f776e6572000000000000000000000000000000000000000000000000000000602082015250565b7f4552433732313a20746f6b656e20616c7265616479206d696e74656400000000600082015250565b7f4552433732313a207472616e7366657220746f20746865207a65726f2061646460008201527f7265737300000000000000000000000000000000000000000000000000000000602082015250565b7f4552433732313a20617070726f766520746f2063616c6c657200000000000000600082015250565b7f4552433732313a206f70657261746f7220717565727920666f72206e6f6e657860008201527f697374656e7420746f6b656e0000000000000000000000000000000000000000602082015250565b7f4552433732313a20617070726f76652063616c6c6572206973206e6f74206f7760008201527f6e6572206e6f7220617070726f76656420666f7220616c6c0000000000000000602082015250565b7f4552433732313a2062616c616e636520717565727920666f7220746865207a6560008201527f726f206164647265737300000000000000000000000000000000000000000000602082015250565b7f4552433732313a206f776e657220717565727920666f72206e6f6e657869737460008201527f656e7420746f6b656e0000000000000000000000000000000000000000000000602082015250565b7f45524337323155524953746f726167653a2055524920736574206f66206e6f6e60008201527f6578697374656e7420746f6b656e000000000000000000000000000000000000602082015250565b7f4552433732313a206d696e7420746f20746865207a65726f2061646472657373600082015250565b7f45524337323155524953746f726167653a2055524920717565727920666f722060008201527f6e6f6e6578697374656e7420746f6b656e000000000000000000000000000000602082015250565b7f4552433732313a20617070726f76656420717565727920666f72206e6f6e657860008201527f697374656e7420746f6b656e0000000000000000000000000000000000000000602082015250565b7f4552433732314d657461646174613a2055524920717565727920666f72206e6f60008201527f6e6578697374656e7420746f6b656e0000000000000000000000000000000000602082015250565b7f4552433732313a20617070726f76616c20746f2063757272656e74206f776e6560008201527f7200000000000000000000000000000000000000000000000000000000000000602082015250565b7f646174613a6170706c69636174696f6e2f6a736f6e3b6261736536342c000000600082015250565b7f4552433732313a207472616e736665722063616c6c6572206973206e6f74206f60008201527f776e6572206e6f7220617070726f766564000000000000000000000000000000602082015250565b612dc1816126b1565b8114612dcc57600080fd5b50565b612dd8816126c3565b8114612de357600080fd5b50565b612def816126cf565b8114612dfa57600080fd5b50565b612e068161271b565b8114612e1157600080fd5b5056fe416e204e465420772f20494420257320686173206265656e206d696e74656420746f202573a2646970667358221220ba7d4178be47b619156972e760489f1d410c9d406479f43b391e46ab0c0b53aa64736f6c63430008040033",
  "linkReferences": {},
  "deployedLinkReferences": {}
}