{
  "_format": "hh-sol-artifact-1",
  "contractName": "MyEpicNFT",
  "sourceName": "contracts/MyEpicNFT.sol",
  "abi": [
    {
      "inputs": [],
      "stateMutability": "nonpayable",
      "type": "constructor"
    },
    {
      "anonymous": false,
      "inputs": [
        {
          "indexed": true,
          "internalType": "address",
          "name": "owner",
          "type": "address"
        },
        {
          "indexed": true,
          "internalType": "address",
          "name": "approved",
          "type": "address"
        },
        {
          "indexed": true,
          "internalType": "uint256",
          "name": "tokenId",
          "type": "uint256"
        }
      ],
      "name": "Approval",
      "type": "event"
    },
    {
      "anonymous": false,
      "inputs": [
        {
          "indexed": true,
          "internalType": "address",
          "name": "owner",
          "type": "address"
        },
        {
          "indexed": true,
          "internalType": "address",
          "name": "operator",
          "type": "address"
        },
        {
          "indexed": false,
          "internalType": "bool",
          "name": "approved",
          "type": "bool"
        }
      ],
      "name": "ApprovalForAll",
      "type": "event"
    },
    {
      "anonymous": false,
      "inputs": [
        {
          "indexed": false,
          "internalType": "address",
          "name": "sender",
          "type": "address"
        },
        {
          "indexed": false,
          "internalType": "uint256",
          "name": "tokenId",
          "type": "uint256"
        }
      ],
      "name": "NewEpicNFTMinted",
      "type": "event"
    },
    {
      "anonymous": false,
      "inputs": [
        {
          "indexed": true,
          "internalType": "address",
          "name": "previousOwner",
          "type": "address"
        },
        {
          "indexed": true,
          "internalType": "address",
          "name": "newOwner",
          "type": "address"
        }
      ],
      "name": "OwnershipTransferred",
      "type": "event"
    },
    {
      "anonymous": false,
      "inputs": [
        {
          "indexed": true,
          "internalType": "address",
          "name": "from",
          "type": "address"
        },
        {
          "indexed": true,
          "internalType": "address",
          "name": "to",
          "type": "address"
        },
        {
          "indexed": true,
          "internalType": "uint256",
          "name": "tokenId",
          "type": "uint256"
        }
      ],
      "name": "Transfer",
      "type": "event"
    },
    {
      "inputs": [
        {
          "internalType": "address",
          "name": "to",
          "type": "address"
        },
        {
          "internalType": "uint256",
          "name": "tokenId",
          "type": "uint256"
        }
      ],
      "name": "approve",
      "outputs": [],
      "stateMutability": "nonpayable",
      "type": "function"
    },
    {
      "inputs": [
        {
          "internalType": "address",
          "name": "owner",
          "type": "address"
        }
      ],
      "name": "balanceOf",
      "outputs": [
        {
          "internalType": "uint256",
          "name": "",
          "type": "uint256"
        }
      ],
      "stateMutability": "view",
      "type": "function"
    },
    {
      "inputs": [
        {
          "internalType": "uint256",
          "name": "tokenId",
          "type": "uint256"
        }
      ],
      "name": "getApproved",
      "outputs": [
        {
          "internalType": "address",
          "name": "",
          "type": "address"
        }
      ],
      "stateMutability": "view",
      "type": "function"
    },
    {
      "inputs": [
        {
          "internalType": "uint256",
          "name": "index",
          "type": "uint256"
        }
      ],
      "name": "getToken",
      "outputs": [
        {
          "internalType": "uint256",
          "name": "",
          "type": "uint256"
        }
      ],
      "stateMutability": "view",
      "type": "function"
    },
    {
      "inputs": [
        {
          "internalType": "address",
          "name": "owner",
          "type": "address"
        },
        {
          "internalType": "address",
          "name": "operator",
          "type": "address"
        }
      ],
      "name": "isApprovedForAll",
      "outputs": [
        {
          "internalType": "bool",
          "name": "",
          "type": "bool"
        }
      ],
      "stateMutability": "view",
      "type": "function"
    },
    {
      "inputs": [
        {
          "internalType": "string",
          "name": "jsonData",
          "type": "string"
        }
      ],
      "name": "makeAnEpicNFT",
      "outputs": [],
      "stateMutability": "nonpayable",
      "type": "function"
    },
    {
      "inputs": [],
      "name": "name",
      "outputs": [
        {
          "internalType": "string",
          "name": "",
          "type": "string"
        }
      ],
      "stateMutability": "view",
      "type": "function"
    },
    {
      "inputs": [],
      "name": "owner",
      "outputs": [
        {
          "internalType": "address",
          "name": "",
          "type": "address"
        }
      ],
      "stateMutability": "view",
      "type": "function"
    },
    {
      "inputs": [
        {
          "internalType": "uint256",
          "name": "tokenId",
          "type": "uint256"
        }
      ],
      "name": "ownerOf",
      "outputs": [
        {
          "internalType": "address",
          "name": "",
          "type": "address"
        }
      ],
      "stateMutability": "view",
      "type": "function"
    },
    {
      "inputs": [],
      "name": "renounceOwnership",
      "outputs": [],
      "stateMutability": "nonpayable",
      "type": "function"
    },
    {
      "inputs": [
        {
          "internalType": "address",
          "name": "from",
          "type": "address"
        },
        {
          "internalType": "address",
          "name": "to",
          "type": "address"
        },
        {
          "internalType": "uint256",
          "name": "tokenId",
          "type": "uint256"
        }
      ],
      "name": "safeTransferFrom",
      "outputs": [],
      "stateMutability": "nonpayable",
      "type": "function"
    },
    {
      "inputs": [
        {
          "internalType": "address",
          "name": "from",
          "type": "address"
        },
        {
          "internalType": "address",
          "name": "to",
          "type": "address"
        },
        {
          "internalType": "uint256",
          "name": "tokenId",
          "type": "uint256"
        },
        {
          "internalType": "bytes",
          "name": "_data",
          "type": "bytes"
        }
      ],
      "name": "safeTransferFrom",
      "outputs": [],
      "stateMutability": "nonpayable",
      "type": "function"
    },
    {
      "inputs": [
        {
          "internalType": "address",
          "name": "operator",
          "type": "address"
        },
        {
          "internalType": "bool",
          "name": "approved",
          "type": "bool"
        }
      ],
      "name": "setApprovalForAll",
      "outputs": [],
      "stateMutability": "nonpayable",
      "type": "function"
    },
    {
      "inputs": [
        {
          "internalType": "bytes4",
          "name": "interfaceId",
          "type": "bytes4"
        }
      ],
      "name": "supportsInterface",
      "outputs": [
        {
          "internalType": "bool",
          "name": "",
          "type": "bool"
        }
      ],
      "stateMutability": "view",
      "type": "function"
    },
    {
      "inputs": [],
      "name": "symbol",
      "outputs": [
        {
          "internalType": "string",
          "name": "",
          "type": "string"
        }
      ],
      "stateMutability": "view",
      "type": "function"
    },
    {
      "inputs": [
        {
          "internalType": "uint256",
          "name": "tokenId",
          "type": "uint256"
        }
      ],
      "name": "tokenURI",
      "outputs": [
        {
          "internalType": "string",
          "name": "",
          "type": "string"
        }
      ],
      "stateMutability": "view",
      "type": "function"
    },
    {
      "inputs": [],
      "name": "totalSupply",
      "outputs": [
        {
          "internalType": "uint256",
          "name": "",
          "type": "uint256"
        }
      ],
      "stateMutability": "view",
      "type": "function"
    },
    {
      "inputs": [
        {
          "internalType": "address",
          "name": "from",
          "type": "address"
        },
        {
          "internalType": "address",
          "name": "to",
          "type": "address"
        },
        {
          "internalType": "uint256",
          "name": "tokenId",
          "type": "uint256"
        }
      ],
      "name": "transferFrom",
      "outputs": [],
      "stateMutability": "nonpayable",
      "type": "function"
    },
    {
      "inputs": [
        {
          "internalType": "address",
          "name": "newOwner",
          "type": "address"
        }
      ],
      "name": "transferOwnership",
      "outputs": [],
      "stateMutability": "nonpayable",
      "type": "function"
    }
  ],
  "bytecode": "0x60806040523480156200001157600080fd5b506040518060400160405280600c81526020017f4d4d4120466967687465727300000000000000000000000000000000000000008152506040518060400160405280600581526020017f444a4d4d41000000000000000000000000000000000000000000000000000000815250816000908051906020019062000096929190620001b0565b508060019080519060200190620000af929190620001b0565b505050620000d2620000c6620000e260201b60201c565b620000ea60201b60201c565b620f4240600981905550620002c5565b600033905090565b6000600760009054906101000a900473ffffffffffffffffffffffffffffffffffffffff16905081600760006101000a81548173ffffffffffffffffffffffffffffffffffffffff021916908373ffffffffffffffffffffffffffffffffffffffff1602179055508173ffffffffffffffffffffffffffffffffffffffff168173ffffffffffffffffffffffffffffffffffffffff167f8be0079c531659141344cd1fd0a4f28419497f9722a3daafe3b4186f6b6457e060405160405180910390a35050565b828054620001be9062000260565b90600052602060002090601f016020900481019282620001e257600085556200022e565b82601f10620001fd57805160ff19168380011785556200022e565b828001600101855582156200022e579182015b828111156200022d57825182559160200191906001019062000210565b5b5090506200023d919062000241565b5090565b5b808211156200025c57600081600090555060010162000242565b5090565b600060028204905060018216806200027957607f821691505b6020821081141562000290576200028f62000296565b5b50919050565b7f4e487b7100000000000000000000000000000000000000000000000000000000600052602260045260246000fd5b6132c080620002d56000396000f3fe608060405234801561001057600080fd5b50600436106101215760003560e01c806370a08231116100ad578063b88d4fde11610071578063b88d4fde146102f4578063c87b56dd14610310578063e4b50cb814610340578063e985e9c514610370578063f2fde38b146103a057610121565b806370a0823114610262578063715018a6146102925780638da5cb5b1461029c57806395d89b41146102ba578063a22cb465146102d857610121565b806318160ddd116100f457806318160ddd146101c057806323b872dd146101de57806339fa8daf146101fa57806342842e0e146102165780636352211e1461023257610121565b806301ffc9a71461012657806306fdde0314610156578063081812fc14610174578063095ea7b3146101a4575b600080fd5b610140600480360381019061013b919061212b565b6103bc565b60405161014d9190612649565b60405180910390f35b61015e61049e565b60405161016b9190612664565b60405180910390f35b61018e600480360381019061018991906121be565b610530565b60405161019b91906125b9565b60405180910390f35b6101be60048036038101906101b991906120ef565b6105b5565b005b6101c86106cd565b6040516101d591906128e6565b60405180910390f35b6101f860048036038101906101f39190611fe9565b6106d3565b005b610214600480360381019061020f919061217d565b610733565b005b610230600480360381019061022b9190611fe9565b610874565b005b61024c600480360381019061024791906121be565b610894565b60405161025991906125b9565b60405180910390f35b61027c60048036038101906102779190611f84565b610946565b60405161028991906128e6565b60405180910390f35b61029a6109fe565b005b6102a4610a86565b6040516102b191906125b9565b60405180910390f35b6102c2610ab0565b6040516102cf9190612664565b60405180910390f35b6102f260048036038101906102ed91906120b3565b610b42565b005b61030e60048036038101906103099190612038565b610b58565b005b61032a600480360381019061032591906121be565b610bba565b6040516103379190612664565b60405180910390f35b61035a600480360381019061035591906121be565b610d0c565b60405161036791906128e6565b60405180910390f35b61038a60048036038101906103859190611fad565b610d97565b6040516103979190612649565b60405180910390f35b6103ba60048036038101906103b59190611f84565b610e2b565b005b60007f80ac58cd000000000000000000000000000000000000000000000000000000007bffffffffffffffffffffffffffffffffffffffffffffffffffffffff1916827bffffffffffffffffffffffffffffffffffffffffffffffffffffffff1916148061048757507f5b5e139f000000000000000000000000000000000000000000000000000000007bffffffffffffffffffffffffffffffffffffffffffffffffffffffff1916827bffffffffffffffffffffffffffffffffffffffffffffffffffffffff1916145b80610497575061049682610f23565b5b9050919050565b6060600080546104ad90612b3c565b80601f01602080910402602001604051908101604052809291908181526020018280546104d990612b3c565b80156105265780601f106104fb57610100808354040283529160200191610526565b820191906000526020600020905b81548152906001019060200180831161050957829003601f168201915b5050505050905090565b600061053b82610f8d565b61057a576040517f08c379a000000000000000000000000000000000000000000000000000000000815260040161057190612846565b60405180910390fd5b6004600083815260200190815260200160002060009054906101000a900473ffffffffffffffffffffffffffffffffffffffff169050919050565b60006105c082610894565b90508073ffffffffffffffffffffffffffffffffffffffff168373ffffffffffffffffffffffffffffffffffffffff161415610631576040517f08c379a0000000000000000000000000000000000000000000000000000000008152600401610628906128a6565b60405180910390fd5b8073ffffffffffffffffffffffffffffffffffffffff16610650610ff9565b73ffffffffffffffffffffffffffffffffffffffff16148061067f575061067e81610679610ff9565b610d97565b5b6106be576040517f08c379a00000000000000000000000000000000000000000000000000000000081526004016106b590612786565b60405180910390fd5b6106c88383611001565b505050565b60095481565b6106e46106de610ff9565b826110ba565b610723576040517f08c379a000000000000000000000000000000000000000000000000000000000815260040161071a906128c6565b60405180910390fd5b61072e838383611198565b505050565b60095461074060086113ff565b10610780576040517f08c379a000000000000000000000000000000000000000000000000000000000815260040161077790612746565b60405180910390fd5b600061078c60086113ff565b90506000826040516020016107a19190612597565b60405160208183030381529060405290506107bc338361140d565b6107c6828261142b565b600a60003373ffffffffffffffffffffffffffffffffffffffff1673ffffffffffffffffffffffffffffffffffffffff168152602001908152602001600020829080600181540180825580915050600190039060005260206000200160009091909190915055610836600861149f565b7febb98688741ffa4c7589bf325de30cf7becb63de567842e1ccdb6cb949fdc82c3383604051610867929190612620565b60405180910390a1505050565b61088f83838360405180602001604052806000815250610b58565b505050565b6000806002600084815260200190815260200160002060009054906101000a900473ffffffffffffffffffffffffffffffffffffffff169050600073ffffffffffffffffffffffffffffffffffffffff168173ffffffffffffffffffffffffffffffffffffffff16141561093d576040517f08c379a0000000000000000000000000000000000000000000000000000000008152600401610934906127c6565b60405180910390fd5b80915050919050565b60008073ffffffffffffffffffffffffffffffffffffffff168273ffffffffffffffffffffffffffffffffffffffff1614156109b7576040517f08c379a00000000000000000000000000000000000000000000000000000000081526004016109ae906127a6565b60405180910390fd5b600360008373ffffffffffffffffffffffffffffffffffffffff1673ffffffffffffffffffffffffffffffffffffffff168152602001908152602001600020549050919050565b610a06610ff9565b73ffffffffffffffffffffffffffffffffffffffff16610a24610a86565b73ffffffffffffffffffffffffffffffffffffffff1614610a7a576040517f08c379a0000000000000000000000000000000000000000000000000000000008152600401610a7190612866565b60405180910390fd5b610a8460006114b5565b565b6000600760009054906101000a900473ffffffffffffffffffffffffffffffffffffffff16905090565b606060018054610abf90612b3c565b80601f0160208091040260200160405190810160405280929190818152602001828054610aeb90612b3c565b8015610b385780601f10610b0d57610100808354040283529160200191610b38565b820191906000526020600020905b815481529060010190602001808311610b1b57829003601f168201915b5050505050905090565b610b54610b4d610ff9565b838361157b565b5050565b610b69610b63610ff9565b836110ba565b610ba8576040517f08c379a0000000000000000000000000000000000000000000000000000000008152600401610b9f906128c6565b60405180910390fd5b610bb4848484846116e8565b50505050565b6060610bc582610f8d565b610c04576040517f08c379a0000000000000000000000000000000000000000000000000000000008152600401610bfb90612826565b60405180910390fd5b6000600660008481526020019081526020016000208054610c2490612b3c565b80601f0160208091040260200160405190810160405280929190818152602001828054610c5090612b3c565b8015610c9d5780601f10610c7257610100808354040283529160200191610c9d565b820191906000526020600020905b815481529060010190602001808311610c8057829003601f168201915b505050505090506000610cae611744565b9050600081511415610cc4578192505050610d07565b600082511115610cf9578082604051602001610ce1929190612573565b60405160208183030381529060405292505050610d07565b610d028461175b565b925050505b919050565b6000600a60003373ffffffffffffffffffffffffffffffffffffffff1673ffffffffffffffffffffffffffffffffffffffff1681526020019081526020016000208281548110610d85577f4e487b7100000000000000000000000000000000000000000000000000000000600052603260045260246000fd5b90600052602060002001549050919050565b6000600560008473ffffffffffffffffffffffffffffffffffffffff1673ffffffffffffffffffffffffffffffffffffffff16815260200190815260200160002060008373ffffffffffffffffffffffffffffffffffffffff1673ffffffffffffffffffffffffffffffffffffffff16815260200190815260200160002060009054906101000a900460ff16905092915050565b610e33610ff9565b73ffffffffffffffffffffffffffffffffffffffff16610e51610a86565b73ffffffffffffffffffffffffffffffffffffffff1614610ea7576040517f08c379a0000000000000000000000000000000000000000000000000000000008152600401610e9e90612866565b60405180910390fd5b600073ffffffffffffffffffffffffffffffffffffffff168173ffffffffffffffffffffffffffffffffffffffff161415610f17576040517f08c379a0000000000000000000000000000000000000000000000000000000008152600401610f0e906126a6565b60405180910390fd5b610f20816114b5565b50565b60007f01ffc9a7000000000000000000000000000000000000000000000000000000007bffffffffffffffffffffffffffffffffffffffffffffffffffffffff1916827bffffffffffffffffffffffffffffffffffffffffffffffffffffffff1916149050919050565b60008073ffffffffffffffffffffffffffffffffffffffff166002600084815260200190815260200160002060009054906101000a900473ffffffffffffffffffffffffffffffffffffffff1673ffffffffffffffffffffffffffffffffffffffff1614159050919050565b600033905090565b816004600083815260200190815260200160002060006101000a81548173ffffffffffffffffffffffffffffffffffffffff021916908373ffffffffffffffffffffffffffffffffffffffff160217905550808273ffffffffffffffffffffffffffffffffffffffff1661107483610894565b73ffffffffffffffffffffffffffffffffffffffff167f8c5be1e5ebec7d5bd14f71427d1e84f3dd0314c0f7b2291e5b200ac8c7c3b92560405160405180910390a45050565b60006110c582610f8d565b611104576040517f08c379a00000000000000000000000000000000000000000000000000000000081526004016110fb90612766565b60405180910390fd5b600061110f83610894565b90508073ffffffffffffffffffffffffffffffffffffffff168473ffffffffffffffffffffffffffffffffffffffff16148061117e57508373ffffffffffffffffffffffffffffffffffffffff1661116684610530565b73ffffffffffffffffffffffffffffffffffffffff16145b8061118f575061118e8185610d97565b5b91505092915050565b8273ffffffffffffffffffffffffffffffffffffffff166111b882610894565b73ffffffffffffffffffffffffffffffffffffffff161461120e576040517f08c379a0000000000000000000000000000000000000000000000000000000008152600401611205906126c6565b60405180910390fd5b600073ffffffffffffffffffffffffffffffffffffffff168273ffffffffffffffffffffffffffffffffffffffff16141561127e576040517f08c379a000000000000000000000000000000000000000000000000000000000815260040161127590612706565b60405180910390fd5b611289838383611802565b611294600082611001565b6001600360008573ffffffffffffffffffffffffffffffffffffffff1673ffffffffffffffffffffffffffffffffffffffff16815260200190815260200160002060008282546112e49190612a52565b925050819055506001600360008473ffffffffffffffffffffffffffffffffffffffff1673ffffffffffffffffffffffffffffffffffffffff168152602001908152602001600020600082825461133b91906129cb565b92505081905550816002600083815260200190815260200160002060006101000a81548173ffffffffffffffffffffffffffffffffffffffff021916908373ffffffffffffffffffffffffffffffffffffffff160217905550808273ffffffffffffffffffffffffffffffffffffffff168473ffffffffffffffffffffffffffffffffffffffff167fddf252ad1be2c89b69c2b068fc378daa952ba7f163c4a11628f55a4df523b3ef60405160405180910390a46113fa838383611807565b505050565b600081600001549050919050565b61142782826040518060200160405280600081525061180c565b5050565b61143482610f8d565b611473576040517f08c379a000000000000000000000000000000000000000000000000000000000815260040161146a906127e6565b60405180910390fd5b8060066000848152602001908152602001600020908051906020019061149a929190611da8565b505050565b6001816000016000828254019250508190555050565b6000600760009054906101000a900473ffffffffffffffffffffffffffffffffffffffff16905081600760006101000a81548173ffffffffffffffffffffffffffffffffffffffff021916908373ffffffffffffffffffffffffffffffffffffffff1602179055508173ffffffffffffffffffffffffffffffffffffffff168173ffffffffffffffffffffffffffffffffffffffff167f8be0079c531659141344cd1fd0a4f28419497f9722a3daafe3b4186f6b6457e060405160405180910390a35050565b8173ffffffffffffffffffffffffffffffffffffffff168373ffffffffffffffffffffffffffffffffffffffff1614156115ea576040517f08c379a00000000000000000000000000000000000000000000000000000000081526004016115e190612726565b60405180910390fd5b80600560008573ffffffffffffffffffffffffffffffffffffffff1673ffffffffffffffffffffffffffffffffffffffff16815260200190815260200160002060008473ffffffffffffffffffffffffffffffffffffffff1673ffffffffffffffffffffffffffffffffffffffff16815260200190815260200160002060006101000a81548160ff0219169083151502179055508173ffffffffffffffffffffffffffffffffffffffff168373ffffffffffffffffffffffffffffffffffffffff167f17307eab39ab6107e8899845ad3d59bd9653f200f220920489ca2b5937696c31836040516116db9190612649565b60405180910390a3505050565b6116f3848484611198565b6116ff84848484611867565b61173e576040517f08c379a000000000000000000000000000000000000000000000000000000000815260040161173590612686565b60405180910390fd5b50505050565b606060405180602001604052806000815250905090565b606061176682610f8d565b6117a5576040517f08c379a000000000000000000000000000000000000000000000000000000000815260040161179c90612886565b60405180910390fd5b60006117af611744565b905060008151116117cf57604051806020016040528060008152506117fa565b806117d9846119fe565b6040516020016117ea929190612573565b6040516020818303038152906040525b915050919050565b505050565b505050565b6118168383611bab565b6118236000848484611867565b611862576040517f08c379a000000000000000000000000000000000000000000000000000000000815260040161185990612686565b60405180910390fd5b505050565b60006118888473ffffffffffffffffffffffffffffffffffffffff16611d85565b156119f1578373ffffffffffffffffffffffffffffffffffffffff1663150b7a026118b1610ff9565b8786866040518563ffffffff1660e01b81526004016118d394939291906125d4565b602060405180830381600087803b1580156118ed57600080fd5b505af192505050801561191e57506040513d601f19601f8201168201806040525081019061191b9190612154565b60015b6119a1573d806000811461194e576040519150601f19603f3d011682016040523d82523d6000602084013e611953565b606091505b50600081511415611999576040517f08c379a000000000000000000000000000000000000000000000000000000000815260040161199090612686565b60405180910390fd5b805181602001fd5b63150b7a0260e01b7bffffffffffffffffffffffffffffffffffffffffffffffffffffffff1916817bffffffffffffffffffffffffffffffffffffffffffffffffffffffff1916149150506119f6565b600190505b949350505050565b60606000821415611a46576040518060400160405280600181526020017f30000000000000000000000000000000000000000000000000000000000000008152509050611ba6565b600082905060005b60008214611a78578080611a6190612b9f565b915050600a82611a719190612a21565b9150611a4e565b60008167ffffffffffffffff811115611aba577f4e487b7100000000000000000000000000000000000000000000000000000000600052604160045260246000fd5b6040519080825280601f01601f191660200182016040528015611aec5781602001600182028036833780820191505090505b5090505b60008514611b9f57600182611b059190612a52565b9150600a85611b149190612be8565b6030611b2091906129cb565b60f81b818381518110611b5c577f4e487b7100000000000000000000000000000000000000000000000000000000600052603260045260246000fd5b60200101907effffffffffffffffffffffffffffffffffffffffffffffffffffffffffffff1916908160001a905350600a85611b989190612a21565b9450611af0565b8093505050505b919050565b600073ffffffffffffffffffffffffffffffffffffffff168273ffffffffffffffffffffffffffffffffffffffff161415611c1b576040517f08c379a0000000000000000000000000000000000000000000000000000000008152600401611c1290612806565b60405180910390fd5b611c2481610f8d565b15611c64576040517f08c379a0000000000000000000000000000000000000000000000000000000008152600401611c5b906126e6565b60405180910390fd5b611c7060008383611802565b6001600360008473ffffffffffffffffffffffffffffffffffffffff1673ffffffffffffffffffffffffffffffffffffffff1681526020019081526020016000206000828254611cc091906129cb565b92505081905550816002600083815260200190815260200160002060006101000a81548173ffffffffffffffffffffffffffffffffffffffff021916908373ffffffffffffffffffffffffffffffffffffffff160217905550808273ffffffffffffffffffffffffffffffffffffffff16600073ffffffffffffffffffffffffffffffffffffffff167fddf252ad1be2c89b69c2b068fc378daa952ba7f163c4a11628f55a4df523b3ef60405160405180910390a4611d8160008383611807565b5050565b6000808273ffffffffffffffffffffffffffffffffffffffff163b119050919050565b828054611db490612b3c565b90600052602060002090601f016020900481019282611dd65760008555611e1d565b82601f10611def57805160ff1916838001178555611e1d565b82800160010185558215611e1d579182015b82811115611e1c578251825591602001919060010190611e01565b5b509050611e2a9190611e2e565b5090565b5b80821115611e47576000816000905550600101611e2f565b5090565b6000611e5e611e5984612926565b612901565b905082815260208101848484011115611e7657600080fd5b611e81848285612afa565b509392505050565b6000611e9c611e9784612957565b612901565b905082815260208101848484011115611eb457600080fd5b611ebf848285612afa565b509392505050565b600081359050611ed68161322e565b92915050565b600081359050611eeb81613245565b92915050565b600081359050611f008161325c565b92915050565b600081519050611f158161325c565b92915050565b600082601f830112611f2c57600080fd5b8135611f3c848260208601611e4b565b91505092915050565b600082601f830112611f5657600080fd5b8135611f66848260208601611e89565b91505092915050565b600081359050611f7e81613273565b92915050565b600060208284031215611f9657600080fd5b6000611fa484828501611ec7565b91505092915050565b60008060408385031215611fc057600080fd5b6000611fce85828601611ec7565b9250506020611fdf85828601611ec7565b9150509250929050565b600080600060608486031215611ffe57600080fd5b600061200c86828701611ec7565b935050602061201d86828701611ec7565b925050604061202e86828701611f6f565b9150509250925092565b6000806000806080858703121561204e57600080fd5b600061205c87828801611ec7565b945050602061206d87828801611ec7565b935050604061207e87828801611f6f565b925050606085013567ffffffffffffffff81111561209b57600080fd5b6120a787828801611f1b565b91505092959194509250565b600080604083850312156120c657600080fd5b60006120d485828601611ec7565b92505060206120e585828601611edc565b9150509250929050565b6000806040838503121561210257600080fd5b600061211085828601611ec7565b925050602061212185828601611f6f565b9150509250929050565b60006020828403121561213d57600080fd5b600061214b84828501611ef1565b91505092915050565b60006020828403121561216657600080fd5b600061217484828501611f06565b91505092915050565b60006020828403121561218f57600080fd5b600082013567ffffffffffffffff8111156121a957600080fd5b6121b584828501611f45565b91505092915050565b6000602082840312156121d057600080fd5b60006121de84828501611f6f565b91505092915050565b6121f081612a86565b82525050565b6121ff81612a98565b82525050565b600061221082612988565b61221a818561299e565b935061222a818560208601612b09565b61223381612cd5565b840191505092915050565b600061224982612993565b61225381856129af565b9350612263818560208601612b09565b61226c81612cd5565b840191505092915050565b600061228282612993565b61228c81856129c0565b935061229c818560208601612b09565b80840191505092915050565b60006122b56032836129af565b91506122c082612ce6565b604082019050919050565b60006122d86026836129af565b91506122e382612d35565b604082019050919050565b60006122fb6025836129af565b915061230682612d84565b604082019050919050565b600061231e601c836129af565b915061232982612dd3565b602082019050919050565b60006123416024836129af565b915061234c82612dfc565b604082019050919050565b60006123646019836129af565b915061236f82612e4b565b602082019050919050565b6000612387601e836129af565b915061239282612e74565b602082019050919050565b60006123aa602c836129af565b91506123b582612e9d565b604082019050919050565b60006123cd6038836129af565b91506123d882612eec565b604082019050919050565b60006123f0602a836129af565b91506123fb82612f3b565b604082019050919050565b60006124136029836129af565b915061241e82612f8a565b604082019050919050565b6000612436602e836129af565b915061244182612fd9565b604082019050919050565b60006124596020836129af565b915061246482613028565b602082019050919050565b600061247c6031836129af565b915061248782613051565b604082019050919050565b600061249f602c836129af565b91506124aa826130a0565b604082019050919050565b60006124c26020836129af565b91506124cd826130ef565b602082019050919050565b60006124e5602f836129af565b91506124f082613118565b604082019050919050565b60006125086021836129af565b915061251382613167565b604082019050919050565b600061252b601d836129c0565b9150612536826131b6565b601d82019050919050565b600061254e6031836129af565b9150612559826131df565b604082019050919050565b61256d81612af0565b82525050565b600061257f8285612277565b915061258b8284612277565b91508190509392505050565b60006125a28261251e565b91506125ae8284612277565b915081905092915050565b60006020820190506125ce60008301846121e7565b92915050565b60006080820190506125e960008301876121e7565b6125f660208301866121e7565b6126036040830185612564565b81810360608301526126158184612205565b905095945050505050565b600060408201905061263560008301856121e7565b6126426020830184612564565b9392505050565b600060208201905061265e60008301846121f6565b92915050565b6000602082019050818103600083015261267e818461223e565b905092915050565b6000602082019050818103600083015261269f816122a8565b9050919050565b600060208201905081810360008301526126bf816122cb565b9050919050565b600060208201905081810360008301526126df816122ee565b9050919050565b600060208201905081810360008301526126ff81612311565b9050919050565b6000602082019050818103600083015261271f81612334565b9050919050565b6000602082019050818103600083015261273f81612357565b9050919050565b6000602082019050818103600083015261275f8161237a565b9050919050565b6000602082019050818103600083015261277f8161239d565b9050919050565b6000602082019050818103600083015261279f816123c0565b9050919050565b600060208201905081810360008301526127bf816123e3565b9050919050565b600060208201905081810360008301526127df81612406565b9050919050565b600060208201905081810360008301526127ff81612429565b9050919050565b6000602082019050818103600083015261281f8161244c565b9050919050565b6000602082019050818103600083015261283f8161246f565b9050919050565b6000602082019050818103600083015261285f81612492565b9050919050565b6000602082019050818103600083015261287f816124b5565b9050919050565b6000602082019050818103600083015261289f816124d8565b9050919050565b600060208201905081810360008301526128bf816124fb565b9050919050565b600060208201905081810360008301526128df81612541565b9050919050565b60006020820190506128fb6000830184612564565b92915050565b600061290b61291c565b90506129178282612b6e565b919050565b6000604051905090565b600067ffffffffffffffff82111561294157612940612ca6565b5b61294a82612cd5565b9050602081019050919050565b600067ffffffffffffffff82111561297257612971612ca6565b5b61297b82612cd5565b9050602081019050919050565b600081519050919050565b600081519050919050565b600082825260208201905092915050565b600082825260208201905092915050565b600081905092915050565b60006129d682612af0565b91506129e183612af0565b9250827fffffffffffffffffffffffffffffffffffffffffffffffffffffffffffffffff03821115612a1657612a15612c19565b5b828201905092915050565b6000612a2c82612af0565b9150612a3783612af0565b925082612a4757612a46612c48565b5b828204905092915050565b6000612a5d82612af0565b9150612a6883612af0565b925082821015612a7b57612a7a612c19565b5b828203905092915050565b6000612a9182612ad0565b9050919050565b60008115159050919050565b60007fffffffff0000000000000000000000000000000000000000000000000000000082169050919050565b600073ffffffffffffffffffffffffffffffffffffffff82169050919050565b6000819050919050565b82818337600083830152505050565b60005b83811015612b27578082015181840152602081019050612b0c565b83811115612b36576000848401525b50505050565b60006002820490506001821680612b5457607f821691505b60208210811415612b6857612b67612c77565b5b50919050565b612b7782612cd5565b810181811067ffffffffffffffff82111715612b9657612b95612ca6565b5b80604052505050565b6000612baa82612af0565b91507fffffffffffffffffffffffffffffffffffffffffffffffffffffffffffffffff821415612bdd57612bdc612c19565b5b600182019050919050565b6000612bf382612af0565b9150612bfe83612af0565b925082612c0e57612c0d612c48565b5b828206905092915050565b7f4e487b7100000000000000000000000000000000000000000000000000000000600052601160045260246000fd5b7f4e487b7100000000000000000000000000000000000000000000000000000000600052601260045260246000fd5b7f4e487b7100000000000000000000000000000000000000000000000000000000600052602260045260246000fd5b7f4e487b7100000000000000000000000000000000000000000000000000000000600052604160045260246000fd5b6000601f19601f8301169050919050565b7f4552433732313a207472616e7366657220746f206e6f6e20455243373231526560008201527f63656976657220696d706c656d656e7465720000000000000000000000000000602082015250565b7f4f776e61626c653a206e6577206f776e657220697320746865207a65726f206160008201527f6464726573730000000000000000000000000000000000000000000000000000602082015250565b7f4552433732313a207472616e736665722066726f6d20696e636f72726563742060008201527f6f776e6572000000000000000000000000000000000000000000000000000000602082015250565b7f4552433732313a20746f6b656e20616c7265616479206d696e74656400000000600082015250565b7f4552433732313a207472616e7366657220746f20746865207a65726f2061646460008201527f7265737300000000000000000000000000000000000000000000000000000000602082015250565b7f4552433732313a20617070726f766520746f2063616c6c657200000000000000600082015250565b7f546f74616c20537570706c7920686173206265656e20726561636865642e0000600082015250565b7f4552433732313a206f70657261746f7220717565727920666f72206e6f6e657860008201527f697374656e7420746f6b656e0000000000000000000000000000000000000000602082015250565b7f4552433732313a20617070726f76652063616c6c6572206973206e6f74206f7760008201527f6e6572206e6f7220617070726f76656420666f7220616c6c0000000000000000602082015250565b7f4552433732313a2062616c616e636520717565727920666f7220746865207a6560008201527f726f206164647265737300000000000000000000000000000000000000000000602082015250565b7f4552433732313a206f776e657220717565727920666f72206e6f6e657869737460008201527f656e7420746f6b656e0000000000000000000000000000000000000000000000602082015250565b7f45524337323155524953746f726167653a2055524920736574206f66206e6f6e60008201527f6578697374656e7420746f6b656e000000000000000000000000000000000000602082015250565b7f4552433732313a206d696e7420746f20746865207a65726f2061646472657373600082015250565b7f45524337323155524953746f726167653a2055524920717565727920666f722060008201527f6e6f6e6578697374656e7420746f6b656e000000000000000000000000000000602082015250565b7f4552433732313a20617070726f76656420717565727920666f72206e6f6e657860008201527f697374656e7420746f6b656e0000000000000000000000000000000000000000602082015250565b7f4f776e61626c653a2063616c6c6572206973206e6f7420746865206f776e6572600082015250565b7f4552433732314d657461646174613a2055524920717565727920666f72206e6f60008201527f6e6578697374656e7420746f6b656e0000000000000000000000000000000000602082015250565b7f4552433732313a20617070726f76616c20746f2063757272656e74206f776e6560008201527f7200000000000000000000000000000000000000000000000000000000000000602082015250565b7f646174613a6170706c69636174696f6e2f6a736f6e3b6261736536342c000000600082015250565b7f4552433732313a207472616e736665722063616c6c6572206973206e6f74206f60008201527f776e6572206e6f7220617070726f766564000000000000000000000000000000602082015250565b61323781612a86565b811461324257600080fd5b50565b61324e81612a98565b811461325957600080fd5b50565b61326581612aa4565b811461327057600080fd5b50565b61327c81612af0565b811461328757600080fd5b5056fea2646970667358221220c72a2afc54ddff36e00e6e4895e04aa57d019cbc24c5cee347d5692efd7214e164736f6c63430008040033",
  "linkReferences": {},
  "deployedLinkReferences": {}
}